:020000040000FA
:06000000DFEF2EF01200FC
:020006001200E6
:06000800B0EF2BF0120026
:02000E000200EE
:10001000265E0000F503000007000000245E0000DB
:08002000FC03000002000000D7
:08002800D9CFE6FFE1CFD9FFBB
:100030008284FE0EDBCFE6FFC8EC2EF0E552829400
:10004000E552E7CFD9FF1200D9CFE6FFE1CFD9FFC4
:100050008284FD0EDBCFF6FFFE0EDBCFF7FF08003C
:10006000F55014E0FD0EDBCFF6FFFE0EDBCFF7FF01
:100070000800F550E66EC8EC2EF0E552ACA2FED7B3
:10008000FD0EDB2AFE0E01E3DB2AE3D78294E55264
:10009000E7CFD9FF1200D9CFE6FFE1CFD9FF8284A5
:1000A000640EE66EB1EC2EF0E552FD0EDBCFE9FFFB
:1000B000FE0EDBCFEAFFEF5013E0FD0EDBCFE9FFD2
:1000C000FE0EDBCFEAFFEF50E66EC8EC2EF0E552F5
:1000D000ACA2FED7FD0EDB2AFE0E01E3DB2AE5D73C
:1000E0008294E552E7CFD9FF1200D9CFE6FFE1CFE6
:1000F000D9FFE65276EC2EF0DF6EDF5000D0E552ED
:10010000E552E7CFD9FF12000EEC2FF0000EE66E9D
:10011000E66A2EEC2EF0E552E5520301FF6F120065
:10012000D9CFE6FFE1CFD9FFE652FD0EDBCFE9FFE5
:10013000FE0EDBCFEAFF0B0EEB6A0C0EEB6AFD0E38
:10014000DBCFE9FFFE0EDBCFEAFF0D0EE926000E46
:10015000EA22FFC3EFFFFD0EDBCFE9FFFE0EDBCF90
:10016000EAFF0E0EE926000EEA22EF6AFD0EDBCF53
:10017000E6FFFE0EDBCFE6FF22D9E552E552FD0E8B
:10018000DBCFE9FFFE0EDBCFEAFF020EE926000E11
:10019000EA22000EEE6E060EED6EFD0EDBCFE9FFDD
:1001A000FE0EDBCFEAFF040EE926000EEA22000E67
:1001B000EE6E010EED6EFD0EDBCFE9FFFE0EDBCF26
:1001C000EAFF080EE926000EEA22000EEE6E070E88
:1001D000ED6EFD0EDBCFE9FFFE0EDBCFEAFF110E69
:1001E000E926000EEA22F8C3EEFFF9C3EDFFFD0E8B
:1001F000DBCFE9FFFE0EDBCFEAFFEE6AED6AFD0E14
:10020000DBCFE9FFFE0EDBCFEAFF0F0EEB6A100E2D
:10021000EB6AFD0EDBCFE6FFFE0EDBCFE6FF10D86C
:10022000E552E552FD0EDBCFE6FFFE0EDBCFE6FF2B
:1002300053D9E552E552E552E552E7CFD9FF120016
:10024000D9CFE6FFE1CFD9FFF60E146E550E156E2D
:10025000166A14C0E6FF15C0E6FF16C0E6FFFD0EE5
:10026000DBCFE9FFFE0EDBCFEAFF020EE926000E30
:10027000EA22EECFE6FFEFCFE6FF02EC29F0176EA1
:10028000050EE15E1750F60E146E550E156E166AC9
:1002900014C0E6FF15C0E6FF16C0E6FFFD0EDBCF7B
:1002A000E9FFFE0EDBCFEAFF040EE926000EEA228C
:1002B000EECFE6FFEFCFE6FF02EC29F0176E050E5A
:1002C000E15E1750FD0EDBCFE9FFFE0EDBCFEAFF4C
:1002D000020EE926000EEA22EECF14F0EFCF15F061
:1002E000FD0EDBCFE9FFFE0EDBCFEAFF060EE926AF
:1002F000000EEA2214C0EEFF15C0EDFFE552E7CF75
:10030000D9FF1200D9CFE6FFE1CFD9FFEEDEE66ECE
:10031000FD0EDBCFE9FFFE0EDBCFEAFF060EE9267E
:10032000000EEA22EE50EFCFEAFFE96EE552E75009
:10033000EF6EF6C3E9FFF7C3EAFF060EE926000EEB
:10034000EA22EE50EFCFEAFFE96E010EE926000E39
:10035000EA22EF6AE552E7CFD9FF1200D9CFE6FFD4
:10036000E1CFD9FFFD0EDBCFE9FFFE0EDBCFEAFFC9
:10037000060EEB6A070EEB6AE552E7CFD9FF1200D3
:10038000D9CFE6FFE1CFD9FFFD0EDBCFE6FFFE0EB2
:10039000DBCFE6FFE1D9E552E55200090CE0FD0EA6
:1003A000DBCFE9FFFE0EDBCFEAFF060EE926000EEB
:1003B000EA22EE2AEF22E552E7CFD9FF1200D9CF89
:1003C000E6FFE1CFD9FFFD0EDBCFE9FFFE0EDBCF6D
:1003D000EAFF0A0EE926000EEA22EF6AE552E7CFAD
:1003E000D9FF1200D9CFE6FFE1CFD9FFFD0EDBCF59
:1003F000E9FFFE0EDBCFEAFF0A0EE926000EEA2235
:10040000010EEF6EE552E7CFD9FF1200D9CFE6FF1C
:10041000E1CFD9FFFD0EDBCFE9FFFE0EDBCFEAFF18
:100420000A0EE926000EEA22020EEF6EE552E7CF31
:10043000D9FF1200D9CFE6FFE1CFD9FFFD0EDBCF08
:10044000E9FFFE0EDBCFEAFF0A0EE926000EEA22E4
:10045000030EEF6EE552E7CFD9FF1200D9CFE6FFCA
:10046000E1CFD9FFFD0EDBCFE9FFFE0EDBCFEAFFC8
:100470000A0EE926000EEA22040EEF6EE552E7CFDF
:10048000D9FF1200D9CFE6FFE1CFD9FFFD0EDBCFB8
:10049000E9FFFE0EDBCFEAFF020EE926000EEA229C
:1004A000EECFE6FFEFCFE6FFFD0EDBCFE9FFFE0E5E
:1004B000DBCFEAFF080EE926000EEA22EECFE6FFC8
:1004C000EFCFE6FFE1EC28F0E552E552E552E552C8
:1004D000E552E7CFD9FF1200D9CFE6FFE1CFD9FF30
:1004E000020EE126DE6ADD6ADECF14F0DDCF15F004
:1004F000D890155004E60A0E145C000E155829E237
:10050000DECF16F0DDCF17F0280E1702F3CF17F06D
:100510001602F3CF16F0F4501726FD0EDBCFE9FFDD
:10052000FE0EDBCFEAFF110EE926000EEA2216507E
:10053000EE24146E1750EE20156E14C0E6FF15C0A1
:10054000E6FF11D8E552E552DF2A010E01E3DB2A6E
:10055000CBD7020EE15C02E2E16AE552E16EE552C0
:10056000E7CFD9FF1200D9CFE6FFE1CFD9FFFD0ECB
:10057000DBCFE9FFFE0EDBCFEAFFEF6AFD0EDBCF3C
:10058000E9FFFE0EDBCFEAFF080EE926000EEA22A5
:10059000EF6AFD0EDBCFE9FFFE0EDBCFEAFF180EA0
:1005A000E926000EEA22EF6AE552E7CFD9FF1200F2
:1005B000400EE66EE66A6C0EE66EB5EC2CF0E55287
:1005C000E552E552949482941200D9CFE6FFE1CF30
:1005D000D9FFFD0EDBCFE9FFFE0EDBCFEAFF060EF3
:1005E000E926000EEA22EE50EFCFEAFFE96EEF5067
:1005F0003E0803E1010E03D002D0000E00D0E55208
:10060000E7CFD9FF1200D9CFE6FFE1CFD9FFFD0E2A
:10061000DBCFE9FFFE0EDBCFEAFF060EE926000E78
:10062000EA22EE50EFCFEAFFE96EEF500D0812E13B
:10063000FD0EDBCFE9FFFE0EDBCFEAFF060EE9265B
:10064000000EEA22EE50EFCFEAFFE96EEF6A010EEC
:1006500003D002D0000E00D0E552E7CFD9FF120040
:10066000D9CFE6FFE1CFD9FFFD0EDBCFE9FFFE0ECC
:10067000DBCFEAFF060EE926000EEA22EE50EFCFAE
:10068000EAFFE96EEF500301FF5D11E0FD0EDBCFE5
:10069000E9FFFE0EDBCFEAFF060EE926000EEA2296
:1006A000EE50EFCFEAFFE96EEF50300803E1010EA4
:1006B00003D002D0000E00D0E552E7CFD9FF1200E0
:1006C000D9CFE6FFE1CFD9FFFD0EDBCFE9FFFE0E6C
:1006D000DBCFEAFF0A0EE926000EEA22EF5003E123
:1006E000010E03D002D0000E00D0E552E7CFD9FFB3
:1006F0001200D9CFE6FFE1CFD9FFFD0EDBCFE9FF36
:10070000FE0EDBCFEAFF0A0EE926000EEA22EF0416
:1007100003E1010E03D002D0000E00D0E552E7CF76
:10072000D9FF1200D9CFE6FFE1CFD9FFFD0EDBCF15
:10073000E9FFFE0EDBCFEAFF0A0EE926000EEA22F1
:10074000EF50020803E1010E03D002D0000E00D0EA
:10075000E552E7CFD9FF1200D9CFE6FFE1CFD9FFAD
:10076000FD0EDBCFE9FFFE0EDBCFEAFF0A0EE92626
:10077000000EEA22EF50030803E1010E03D002D07D
:10078000000E00D0E552E7CFD9FF1200D9CFE6FF27
:10079000E1CFD9FFFD0EDBCFE9FFFE0EDBCFEAFF95
:1007A0000A0EE926000EEA22EF50040803E1010ECA
:1007B00003D002D0000E00D0E552E7CFD9FF1200DF
:1007C000D9CFE6FFE1CFD9FFFD0EDBCFE9FFFE0E6B
:1007D000DBCFEAFF0A0EE926000EEA22EF50040AF8
:1007E00001E19ED0070A01E17DD0010A54E0030A2D
:1007F0002AE0010A13E0FD0EDBCFE6FFFE0EDBCFA1
:10080000E6FFDDDDE552E552FD0EDBCFE6FFFE0E35
:10081000DBCFE6FF15DDE552E55283D0FD0EDBCFE1
:10082000E6FFFE0EDBCFE6FFD0DEE552E552000923
:1008300009E0FD0EDBCFE6FFFE0EDBCFE6FFD2DDEB
:10084000E552E5526ED0FD0EDBCFE6FFFE0EDBCFAC
:10085000E6FFBBDEE552E55200090AE0FD0EDBCF04
:10086000E6FFFE0EDBCFE6FFD1DDE552E55212D00A
:10087000FD0EDBCFE6FFFE0EDBCFE6FFA0DDE5528F
:10088000E552FD0EDBCFE6FFFE0EDBCFE6FFD8DC48
:10089000E552E55246D0FD0EDBCFE6FFFE0EDBCF84
:1008A000E6FFDEDEE552E55200090AE0FD0EDBCF91
:1008B000E6FFFE0EDBCFE6FFBDDDE552E55212D0CE
:1008C000FD0EDBCFE6FFFE0EDBCFE6FF78DDE55267
:1008D000E552FD0EDBCFE6FFFE0EDBCFE6FFB0DC20
:1008E000E552E552FD0EDBCFE6FFFE0EDBCFE6FF65
:1008F0008ADEE552E552000909E0FD0EDBCFE6FF96
:10090000FE0EDBCFE6FFAADDE552E552FD0EDBCFA2
:10091000E6FFFE0EDBCFE6FF33DDE552E55201D008
:1009200000D0E552E7CFD9FF1200D9CFE6FFE1CFE3
:10093000D9FF040EE126F40E146E550E156E166ADC
:1009400014C0E6FF15C0E6FF16C0E6FFFD0EDBCFC4
:10095000E9FFFE0EDBCFEAFF080EE926000EEA22D1
:10096000EECFE6FFEFCFE6FF03EC2BF0176E050EA0
:10097000E15E1750020EF3CFDBFF030EF4CFDBFF77
:10098000F40E166E550E176E186A16C0E6FF17C0E5
:10099000E6FF18C0E6FF000EE66EE66A03EC2BF0F9
:1009A000196E050EE15E1950F3CF14F0F4CF15F077
:1009B000FD0EDBCFE9FFFE0EDBCFEAFF14C0EEFF3A
:1009C00015C0EDFF020EDBCFE6FF030EDBCFE6FF27
:1009D0001BEC29F0E552E552F3CFDEFFF4CFDDFF4B
:1009E000D9CFE9FFDACFEAFF030EEE1801E1ED50AF
:1009F00030E1020EDBCFE9FF030EDBCFEAFFEF5061
:100A0000E66EFD0EDBCFE9FFFE0EDBCFEAFF0D0E3B
:100A1000E926000EEA22E552E750EF6E020EE76E7D
:100A2000DBCFE9FF030EDBCFEAFFE750E926000E3C
:100A3000EA22EF50E66EFD0EDBCFE9FFFE0EDBCFC4
:100A4000EAFF0E0EE926000EEA22E552E750EF6EAD
:100A50004FD0DECF14F0DDCF15F0D890155004E65E
:100A6000030E145C000E15582DE2DECF16F0DDCF1C
:100A700017F0D890175004E6010E165C000E1758B8
:100A800021E3020EDBCFE9FF030EDBCFEAFFEF50DD
:100A9000E66EFD0EDBCFE9FFFE0EDBCFEAFF0D0EAB
:100AA000E926000EEA22E552E750EF6EFD0EDBCF9D
:100AB000E9FFFE0EDBCFEAFF0E0EE926000EEA226A
:100AC000EF6A16D0FD0EDBCFE9FFFE0EDBCFEAFFAB
:100AD0000D0EE926000EEA22EF6AFD0EDBCFE9FFDC
:100AE000FE0EDBCFEAFF0E0EE926000EEA22EF6AC9
:100AF000040EE15C02E2E16AE552E16EE552E7CF05
:100B0000D9FF1200D9CFE6FFE1CFD9FF0A0EE126C7
:100B1000080EDB6A090EDB6AD950040FE66E000E80
:100B2000DA20E66EF20EE66E550EE66EFD0EDBCFB7
:100B3000E9FFFE0EDBCFEAFFEECFE6FFEFCFE6FFE9
:100B4000A1EC29F0166E060EE15E1650F3CF14F0FC
:100B5000F4CF15F0FD0EDBCFE9FFFE0EDBCFEAFF91
:100B600014C0EEFF15C0EDFFFD0EDBCFE9FFFE0E5A
:100B7000DBCFEAFFEE50ED1071E0D950060FE66EC4
:100B8000000EDA20E66EF00EE66E550EE66EFD0EF5
:100B9000DBCFE9FFFE0EDBCFEAFFEECFE6FFEFCFC4
:100BA000E6FFA1EC29F0146E060EE15E1450020E71
:100BB000F3CFDBFF030EF4CFDBFFD950060FE66E59
:100BC000000EDA20E66EF00EE66E550EE66E000EB2
:100BD000E66EE66AA1EC29F0146E060EE15E145092
:100BE000F3CFDEFFF4CFDDFFD950040FE66E000E29
:100BF000DA20E66EF20EE66E550EE66E000EE66E3A
:100C0000E66AA1EC29F0166E060EE15E1650F3CFEF
:100C100014F0F4CF15F0FD0EDBCFE9FFFE0EDBCFB5
:100C2000EAFF14C0EEFF15C0EDFFDECFE6FFDDCF1B
:100C3000E6FF020EDBCFE6FF030EDBCFE6FFFD0E85
:100C4000DBCFE6FFFE0EDBCFE6FF12D8146E060EFA
:100C5000E15E1450000901E101D086D70A0EE15C83
:100C600002E2E16AE552E16EE552E7CFD9FF1200F8
:100C7000D9CFE6FFE1CFD9FFFD0EDBCFE9FFFE0EB6
:100C8000DBCFEAFF0F0EE926000EEA22EECF14F0CA
:100C9000EFCF15F0D890155004E60A0E145C000E44
:100CA000155802E3000E54D1FB0EDBCFE6FFFC0E1D
:100CB000DBCFE6FF1BEC29F0E552E552F3CF14F051
:100CC000F4CF15F0080ED8801454000E155402E22B
:100CD000000E3ED1F90EDBCFE6FFFA0EDBCFE6FFCA
:100CE0001BEC29F0E552E552F3CF14F0F4CF15F0E8
:100CF000100ED8801454000E155402E2000E28D1B4
:100D0000D950FB0FE96EFF0EDA20EA6EEE50ED10BF
:100D100043E1F60E146E550E156E166A14C0E6FF0A
:100D200015C0E6FF16C0E6FFFD0EDBCFE9FFFE0EA5
:100D3000DBCFEAFF0F0EE926000EEA22EECF19F014
:100D4000EFCF1AF0280E1A02F3CF1AF01902F3CFE0
:100D500019F0F4501A26FD0EDBCFE9FFFE0EDBCFB3
:100D6000EAFF110EE926000EEA221950EE24E76E82
:100D70001A50EE20EA6EE7CFE9FFE9CF17F0EACF8D
:100D800018F017C0E6FF18C0E6FF02EC29F01B6E52
:100D9000050EE15E1B503DD0FB0EDBCFE6FFFC0EE7
:100DA000DBCFE6FFFD0EDBCFE9FFFE0EDBCFEAFF78
:100DB0000F0EE926000EEA22EECF16F0EFCF17F065
:100DC000280E1702F3CF17F01602F3CF16F0F450E7
:100DD0001726FD0EDBCFE9FFFE0EDBCFEAFF110E7B
:100DE000E926000EEA221650EE24E76E1750EE2098
:100DF000EA6EE7CFE9FFE9CF14F0EACF15F014C0AF
:100E0000E6FF15C0E6FFE1EC28F0E552E552E552B9
:100E1000E552D950F90FE96EFF0EDA20EA6EEE5076
:100E2000ED1047E1F60E146E550E156E166A14C0DD
:100E3000E6FF15C0E6FF16C0E6FFFD0EDBCFE9FFBB
:100E4000FE0EDBCFEAFF0F0EE926000EEA22EECF00
:100E500019F0EFCF1AF0280E1A02F3CF1AF0190288
:100E6000F3CF19F0F4501A26FD0EDBCFE9FFFE0E8A
:100E7000DBCFEAFF110EE926000EEA221950EE241C
:100E8000E76E1A50EE20EA6EE7CFE9FF080EE9267A
:100E9000000EEA22E9CF17F0EACF18F017C0E6FFFC
:100EA00018C0E6FF02EC29F01B6E050EE15E1B5038
:100EB00041D0F90EDBCFE6FFFA0EDBCFE6FFFD0EE9
:100EC000DBCFE9FFFE0EDBCFEAFF0F0EE926000EB7
:100ED000EA22EECF16F0EFCF17F0280E1702F3CF6D
:100EE00017F01602F3CF16F0F4501726FD0EDBCFE5
:100EF000E9FFFE0EDBCFEAFF110EE926000EEA2223
:100F00001650EE24E76E1750EE20EA6EE7CFE9FFA9
:100F1000080EE926000EEA22E9CF14F0EACF15F018
:100F200014C0E6FF15C0E6FFE1EC28F0E552E552FB
:100F3000E552E552FD0EDBCFE9FFFE0EDBCFEAFF07
:100F40000F0EE926000EEA22EE2AEF22010E00D053
:100F5000E552E7CFD9FF1200D9CFE6FFE1CFD9FFA5
:100F6000020EE126DE6ADD6AFFC314F0156A14BEC4
:100F7000156814C0E6FF15C0E6FFFD0EDBCFE9FFE4
:100F8000FE0EDBCFEAFF0E0EE926000EEA22EFCFBF
:100F900016F0176A16BE176816C0E6FF17C0E6FF00
:100FA000E70E186E550E196E1A6A18C0E6FF19C0C2
:100FB000E6FF1AC0E6FFFD0EDBCFE9FFFE0EDBCF3A
:100FC000EAFF040EE926000EEA22EECFE6FFEFCF9D
:100FD000E6FF10EC2CF01B6E090EE15E1B50DE6A82
:100FE000DD6ADECF14F0DDCF15F0D890155004E6A1
:100FF0000A0E145C000E155801E323D1DECF14F065
:10100000DDCF15F0280E1502F3CF15F01402F3CF43
:1010100014F0F4501526FD0EDBCFE9FFFE0EDBCFFA
:10102000EAFF110EE926000EEA221450EE24E76EC4
:101030001550EE20EA6EE7CFE9FFEF5001E1FCD05A
:10104000E50E146E550E156E166A14C0E6FF15C037
:10105000E6FF16C0E6FFFD0EDBCFE9FFFE0EDBCF9D
:10106000EAFF040EE926000EEA22EECFE6FFEFCFFC
:10107000E6FF7AEC28F0176E050EE15E1750DECF22
:1010800016F0DDCF17F0280E1702F3CF17F0160277
:10109000F3CF16F0F4501726FD0EDBCFE9FFFE0E5E
:1010A000DBCFEAFF110EE926000EEA221650EE24ED
:1010B000E76E1750EE20EA6EE7CFE9FFE9CF14F0B4
:1010C000EACF15F014C0E6FF15C0E6FFFD0EDBCF3A
:1010D000E9FFFE0EDBCFEAFF040EE926000EEA224E
:1010E000EECFE6FFEFCFE6FF56EC28F0E552E552F3
:1010F000E552E552DECF14F0DDCF15F0280E1502D3
:10110000F3CF15F01402F3CF14F0F4501526FD0EB2
:10111000DBCFE9FFFE0EDBCFEAFF110EE926000E62
:10112000EA221450EE24E76E1550EE20EA6EE7CF67
:10113000E9FF180EE926000EEA22EF505EE0F00EFD
:10114000146E550E156E166A14C0E6FF15C0E6FF44
:1011500016C0E6FFFD0EDBCFE9FFFE0EDBCFEAFF98
:10116000040EE926000EEA22EECFE6FFEFCFE6FFFF
:101170007AEC28F0176E050EE15E1750DECF16F000
:10118000DDCF17F0280E1702F3CF17F01602F3CFBA
:1011900016F0F4501726FD0EDBCFE9FFFE0EDBCF75
:1011A000EAFF110EE926000EEA221650EE24E76E41
:1011B0001750EE20EA6EE7CFE9FF180EE926000E81
:1011C000EA22E9CF14F0EACF15F014C0E6FF15C00B
:1011D000E6FFFD0EDBCFE9FFFE0EDBCFEAFF040EDC
:1011E000E926000EEA22EECFE6FFEFCFE6FF56EC4F
:1011F00028F0E552E552E552E552F20E146E550E16
:10120000156E166A14C0E6FF15C0E6FF16C0E6FFAD
:10121000FD0EDBCFE9FFFE0EDBCFEAFF040EE92671
:10122000000EEA22EECFE6FFEFCFE6FF7AEC28F0E1
:10123000176E050EE15E1750DF2A010E01E3DB2A6F
:10124000D0D6E30E146E550E156E166A14C0E6FF66
:1012500015C0E6FF16C0E6FFFD0EDBCFE9FFFE0E70
:10126000DBCFEAFF040EE926000EEA22EECFE6FF0E
:10127000EFCFE6FF7AEC28F0176E050EE15E17500F
:10128000020EE15C02E2E16AE552E16EE552E7CF6F
:10129000D9FF1200D9CFE6FFE1CFD9FF020EE12638
:1012A000DE6ADD6ADE6ADD6ADECF14F0DDCF15F0BE
:1012B000D890155004E60A0E145C000E155861E231
:1012C000DECF16F0DDCF17F0280E1702F3CF17F0A0
:1012D0001602F3CF16F0F4501726FD0EDBCFE9FF10
:1012E000FE0EDBCFEAFF110EE926000EEA221650B1
:1012F000EE24E76E1750EE20EA6EE7CFE9FF080E06
:10130000E926000EEA22E9CF14F0EACF15F014C066
:10131000E6FF15C0E6FFDECF1AF0DDCF1BF0280E8A
:101320001B02F3CF1BF01A02F3CF1AF0F4501B2666
:10133000FD0EDBCFE9FFFE0EDBCFEAFF110EE92643
:10134000000EEA221A50EE24E76E1B50EE20EA6EE1
:10135000E7CFE9FF180EE926000EEA22E9CF18F0E0
:10136000EACF19F018C0E6FF19C0E6FF56EC28F0E6
:10137000E552E552E552E552DF2A010E01E3DB2A90
:1013800093D7020EE15C02E2E16AE552E16EE552BA
:10139000E7CFD9FF1200F6C3E6FFF7C3E6FF90ECF4
:1013A00000F0E552E552D8EC02F084EF00F0F6C30D
:1013B000E6FFF7C3E6FFC6EC03F0E552E55200098D
:1013C00003E0010E03D002D0000E00D01200F6C3DD
:1013D000E6FFF7C3E6FF82EC01F0E552E552F6C303
:1013E000E6FFF7C3E6FFE0EC03F0E552E55212003A
:1013F000F6C3E6FFF7C3E6FF42EC02F0E552E55222
:10140000F6C3E6FFF7C3E6FF20EC01F0E552E55234
:10141000F6C3E6FFF7C3E6FF95EC04F0E552E552AC
:10142000F6C3E6FFF7C3E6FF82EC05F0E552E552AE
:10143000F6C3F3FFF7C3F4FF00D01200D9CFE6FFE5
:10144000E1CFD9FF040EE126DC0EE66E550EE66E06
:1014500024EC00F0E552E552F6C3E9FFF7C3EAFFDA
:101460000D0EEB50E66E14EC00F0E552D40EE66E75
:10147000550EE66E24EC00F0E552E552F6C3E9FFA6
:10148000F7C3EAFF0E0EEB50E66E14EC00F0E552E7
:10149000D10EE66E550EE66E24EC00F0E552E552F4
:1014A000DE6ADD6ADECF14F0DDCF15F0D89015507E
:1014B00004E60A0E145C000E15586EE2B30EE66EDA
:1014C000550EE66E24EC00F0E552E552DECF16F044
:1014D000DDCF17F0280E1702F3CF17F01602F3CF67
:1014E00016F0F4501726F6C3E9FFF7C3EAFF110E12
:1014F000E926000EEA221650EE24146E1750EE2054
:10150000156E020E14C0DBFF030E15C0DBFFAC0E20
:10151000E66E550EE66E24EC00F0E552E552020E42
:10152000DBCFE9FF030EDBCFEAFFE9CF14F0EACF10
:1015300015F014C0E6FF15C0E6FF4BEC00F0E552D5
:10154000E552AA0EE66E550EE66E24EC00F0E5526A
:10155000E552A10EE66E550EE66E24EC00F0E55263
:10156000E552020EDBCFE9FF030EDBCFEAFF080EE8
:10157000E926000EEA22E9CF14F0EACF15F014C0F4
:10158000E6FF15C0E6FF4BEC00F0E552E552DF2A1E
:10159000010E01E3DB2A86D7040EE15C02E2E16A78
:1015A000E552E16EE552E7CFD9FF1200D9CFE6FF51
:1015B000E1CFD9FF0A0EE1261BDF040EF3CFDBFFDC
:1015C000050EF4CFDBFFDE6ADD6ADECF14F0DDCF7F
:1015D00015F0D890155004E60A0E145C000E15584C
:1015E00001E3D5D0DECF16F0DDCF17F0280E1702BD
:1015F000F3CF17F01602F3CF16F0F4501726040EAF
:10160000DBCFE9FF050EDBCFEAFF110EE926000E66
:10161000EA221650EE24E76E1750EE20EA6EE7CF6E
:10162000E9FFE9CF14F0EACF15F014C0E6FF15C0CA
:10163000E6FF91EC1AF0E552E552080EF3CFDBFF1E
:10164000090EF4CFDBFF080EDBCF14F0090EDBCF61
:1016500015F0DECF18F0DDCF19F0280E1902F3CF08
:1016600019F01802F3CF18F0F4501926040EDBCF4E
:10167000E9FF050EDBCFEAFF110EE926000EEA2294
:101680001850EE24E76E1950EE20EA6EE7CFE9FF1E
:10169000E9CF16F0EACF17F016C0E6FF17C0E6FF55
:1016A000DECF1CF0DDCF1DF0280E1D02F3CF1DF0A4
:1016B0001C02F3CF1CF0F4501D26040EDBCFE9FF13
:1016C000050EDBCFEAFF110EE926000EEA221C50C0
:1016D000EE24E76E1D50EE20EA6EE7CFE9FF080E1C
:1016E000E926000EEA22E9CF1AF0EACF1BF01AC071
:1016F000E6FF1BC0E6FF04D015C0FAFF1450F96ED8
:10170000FBDFE552E552E552E552020EF3CFDBFF77
:10171000030EF4CFDBFF020EDBCFE6FF030EDBCFC1
:10172000E6FFDECF16F0DDCF17F0280E1702F3CF5D
:1017300017F01602F3CF16F0F4501726040EDBCF85
:10174000E9FF050EDBCFEAFF110EE926000EEA22C3
:101750001650EE24E76E1750EE20EA6EE7CFE9FF51
:10176000180EE926000EEA22E9CF14F0EACF15F0B0
:1017700014C0E6FF15C0E6FFE1EC28F0E552E552A3
:10178000E552E552DF2A010E01E3DB2A1ED70A0EDD
:10179000E15C02E2E16AE552E16EE552E7CFD9FF92
:1017A0001200D9CFE6FFE1CFD9FF020EE126F6C342
:1017B000E6FFF7C3E6FFACEC07F0E552E552F3CFE6
:1017C000DEFFF4CFDDFFDECFE6FFDDCFE6FF4BEC43
:1017D00000F0E552E552020EE15C02E2E16AE552F8
:1017E000E16EE552E7CFD9FF12008294F6C3E6FF1F
:1017F000F7C3E6FFDFEC01F0E552E552F6C3E6FF82
:10180000F7C3E6FF20EC01F0E552E552F6C3E9FF2D
:10181000F7C3EAFF020EE926000EEA22EECF14F02B
:10182000EFCF15F0F6C3E9FFF7C3EAFF14C0EEFFF0
:1018300015C0EDFFF6C3E9FFF7C3EAFF0F0EEB6A31
:10184000100EEB6AF6C3E6FFF7C3E6FF6CEC02F09E
:10185000E552E5521200F6C3E9FFF7C3EAFF020EB4
:10186000E926000EEA22EECFE6FFEFCFE6FF4BECD3
:1018700000F0E552E5521200D9CFE6FFE1CFD9FFE3
:10188000ACA2FED7FC0EDBCFF6FFFD0EDBCFF7FFE1
:10189000FE0EDBCFF8FF0800F550E66E14EC00F00A
:1018A000E552817E050EE66EB1EC2EF0E552D95080
:1018B000FC0FE96EFF0EDA20EA6EEE2A000EEE2231
:1018C000EE22FC0EDBCFF6FFFD0EDBCFF7FFFE0EA8
:1018D000DBCFF8FF0800F550D3E1E552E7CFD9FFA1
:1018E0001200D9CFE6FFE1CFD9FFACA2FED7FD0EA3
:1018F000DBCFE6FF14EC00F0E552817E320EE66E9F
:10190000B1EC2EF0E552FD0EDB2AFE0E01E3DB2AE0
:10191000FD0EDBCFE9FFFE0EDBCFEAFFEF50E5E186
:08192000E552E7CFD9FF1200E8
:08192800D9CFE6FFE1CFD9FFA2
:10193000020EE126FB0EDBCFE6FF20EC25F0E552A0
:10194000F3CF14F0F4CF15F0FD0EDBCFE9FFFE0E60
:10195000DBCFEAFFEE5214C0EEFF15C0EDFFFD0E27
:10196000DBCFE9FFFE0EDBCFEAFF090EEB6A0A0EC2
:10197000EB6AFD0EDBCFE9FFFE0EDBCFEAFF0B0EBD
:10198000EB6A0C0EEB6AFD0EDBCFE9FFFE0EDBCF40
:10199000EAFF0D0EEB6A0E0EEB6AFD0EDBCFE9FFE0
:1019A000FE0EDBCFEAFF070EE926000EEA22040E48
:1019B000EE6EED6AFD0EDBCFE9FFFE0EDBCFEAFF38
:1019C000030EE926000EEA22FA0EDBCFEFFFFD0E32
:1019D000DBCFE9FFFE0EDBCFEAFF040EE926000EA7
:1019E000EA22F90EDBCFEFFFFD0EDBCFE9FFFE0EA3
:1019F000DBCFEAFF050EE926000EEA22F80EDBCF68
:101A0000EFFFFD0EDBCFE9FFFE0EDBCFEAFF100E8E
:101A1000E926000EEA22EF6AFD0EDBCFE6FFFE0E9E
:101A2000DBCFE6FF15D8E552E552FD0EDBCFE6FF32
:101A3000FE0EDBCFE6FF47D8E552E552020EE15C31
:101A400002E2E16AE552E16EE552E7CFD9FF12000A
:101A5000D9CFE6FFE1CFD9FFFD0EDBCFE9FFFE0EC8
:101A6000DBCFEAFF060EE926000EEA22EF6AE55216
:101A7000E7CFD9FF1200D9CFE6FFE1CFD9FFFD0EA6
:101A8000DBCFE9FFFE0EDBCFEAFF060EE926000EF4
:101A9000EA22010EEF6EE552E7CFD9FF1200D9CF4F
:101AA000E6FFE1CFD9FFFD0EDBCFE9FFFE0EDBCF76
:101AB000EAFF0F0EE926000EEA22010EEF6EE55254
:101AC000E7CFD9FF1200D9CFE6FFE1CFD9FFFD0E56
:101AD000DBCFE9FFFE0EDBCFEAFF0F0EE926000E9B
:101AE000EA22020EEF6EE552E7CFD9FF1200D9CFFE
:101AF000E6FFE1CFD9FFFD0EDBCFE9FFFE0EDBCF26
:101B0000EAFF070EE926000EEA22FB0EDBCFEEFF0E
:101B1000FC0EDBCFEDFFE552E7CFD9FF1200D9CFA6
:101B2000E6FFE1CFD9FFFD0EDBCFE9FFFE0EDBCFF5
:101B3000EAFF0D0EE926000EEA22FB0EDBCFEEFFD8
:101B4000FC0EDBCFEDFFE552E7CFD9FF1200D9CF76
:101B5000E6FFE1CFD9FFFD0EDBCFE9FFFE0EDBCFC5
:101B6000EAFFFC0EDBCFEFFFFD0EDBCFE9FFFE0E41
:101B7000DBCFEAFFEF50E66E20EC25F0E552F3CF25
:101B800014F0F4CF15F0FD0EDBCFE9FFFE0EDBCF36
:101B9000EAFFEE5214C0EEFF15C0EDFFE552E7CFAD
:101BA000D9FF1200D9CFE6FFE1CFD9FFFD0EDBCF81
:101BB000E9FFFE0EDBCFEAFF030EE926000EEA2264
:101BC000FC0EDBCFEFFFE552E7CFD9FF1200D9CFF4
:101BD000E6FFE1CFD9FFFD0EDBCFE9FFFE0EDBCF45
:101BE000EAFF040EE926000EEA22FC0EDBCFEFFF2F
:101BF000E552E7CFD9FF1200D9CFE6FFE1CFD9FFF9
:101C0000FD0EDBCFE9FFFE0EDBCFEAFF050EE92676
:101C1000000EEA22FC0EDBCFEFFFE552E7CFD9FF43
:101C20001200D9CFE6FFE1CFD9FFFD0EDBCFE9FFF0
:101C3000FE0EDBCFEAFF0F0EE926000EEA22EF04CC
:101C400003E1010E03D002D0000E00D0E552E7CF31
:101C5000D9FF1200D9CFE6FFE1CFD9FFFD0EDBCFD0
:101C6000E9FFFE0EDBCFEAFF0B0EE926000EEA22AB
:101C7000EE2AEF22E552E7CFD9FF1200D9CFE6FFD7
:101C8000E1CFD9FF020EE126FD0EDBCFE9FFFE0E0C
:101C9000DBCFEAFFEE52EE50EFCFEAFFE96EEF50F6
:101CA000DE6EDD6AFD0EDBCFE9FFFE0EDBCFEAFF65
:101CB000100EE926000EEA22EF50030A01E108D2D5
:101CC000010A01E187D1030A01E107D1010A01E11B
:101CD00086D0FD0EDBCFE9FFFE0EDBCFEAFF100E54
:101CE000E926000EEA22EF6AFD0EDBCFE9FFFE0EC9
:101CF000DBCFEAFF030EE926000EEA22EF50E66E84
:101D0000DECFE6FFDDCFE6FFEDEC25F0E552E55254
:101D1000E552F3CFDEFFF4CFDDFFFD0EDBCFE9FFB1
:101D2000FE0EDBCFEAFF040EE926000EEA22EF509A
:101D3000E66EDECFE6FFDDCFE6FFEDEC25F0E55207
:101D4000E552E552F3CFDEFFF4CFDDFFFD0EDBCF32
:101D5000E9FFFE0EDBCFEAFF050EE926000EEA22C0
:101D6000EF50E66EDECFE6FFDDCFE6FFEDEC25F0CF
:101D7000E552E552E552F3CFDEFFF4CFDDFFFD0E75
:101D8000DBCFE9FFFE0EDBCFEAFFEE52EE50EFCFE6
:101D9000EAFFE96EDFCFEFFFFD0EDBCFE6FFFE0EC1
:101DA000DBCFE6FF57DFE552E552FD0EDBCFE9FF63
:101DB000FE0EDBCFEAFF060EE926000EEA22EF5008
:101DC00001E00CD2FD0EDBCFE9FFFE0EDBCFEAFF18
:101DD000100EE926000EEA22010EEF6E0BD2FD0E68
:101DE000DBCFE9FFFE0EDBCFEAFF030EE926000E94
:101DF000EA22EF50E66EDECFE6FFDDCFE6FFEDEC48
:101E000025F0E552E552E552F3CFDEFFF4CFDDFFDA
:101E1000FD0EDBCFE9FFFE0EDBCFEAFF040EE92665
:101E2000000EEA22EF50E66EDECFE6FFDDCFE6FFE2
:101E3000EDEC25F0E552E552E552F3CFDEFFF4CFAD
:101E4000DDFFFD0EDBCFE9FFFE0EDBCFEAFF050E67
:101E5000E926000EEA22EF50E66EDECFE6FFDDCF88
:101E6000E6FFB1EC25F0E552E552E552F3CFDEFF97
:101E7000F4CFDDFFFD0EDBCFE9FFFE0EDBCFEAFF87
:101E8000EE52EE50EFCFEAFFE96EDFCFEFFFFD0E2F
:101E9000DBCFE9FFFE0EDBCFEAFF060EE926000EE0
:101EA000EA22EF500DE1FD0EDBCFE9FFFE0EDBCFA6
:101EB000EAFF100EE926000EEA22010EEF6E0CD0AA
:101EC000FD0EDBCFE9FFFE0EDBCFEAFF100EE926A9
:101ED000000EEA22030EEF6E8ED1FD0EDBCFE9FF7E
:101EE000FE0EDBCFEAFF030EE926000EEA22EF50DA
:101EF000E66EDECFE6FFDDCFE6FFB1EC25F0E55282
:101F0000E552E552F3CFDEFFF4CFDDFFFD0EDBCF70
:101F1000E9FFFE0EDBCFEAFF040EE926000EEA22FF
:101F2000EF50E66EDECFE6FFDDCFE6FFEDEC25F00D
:101F3000E552E552E552F3CFDEFFF4CFDDFFFD0EB3
:101F4000DBCFE9FFFE0EDBCFEAFF050EE926000E30
:101F5000EA22EF50E66EDECFE6FFDDCFE6FFB1EC22
:101F600025F0E552E552E552F3CFDEFFF4CFDDFF79
:101F7000FD0EDBCFE9FFFE0EDBCFEAFFEE52EE50A7
:101F8000EFCFEAFFE96EDFCFEFFFFD0EDBCFE9FF1A
:101F9000FE0EDBCFEAFF060EE926000EEA22EF5026
:101FA0000DE1FD0EDBCFE9FFFE0EDBCFEAFF100EE9
:101FB000E926000EEA22020EEF6E0BD0FD0EDBCFFB
:101FC000E9FFFE0EDBCFEAFF100EE926000EEA2243
:101FD000EF6A11D1FD0EDBCFE9FFFE0EDBCFEAFF8A
:101FE000030EE926000EEA22EF50E66EDECFE6FF92
:101FF000DDCFE6FFB1EC25F0E552E552E552F3CF37
:10200000DEFFF4CFDDFFFD0EDBCFE9FFFE0EDBCF01
:10201000EAFF040EE926000EEA22EF50E66EDECF5C
:10202000E6FFDDCFE6FFB1EC25F0E552E552E552E3
:10203000F3CFDEFFF4CFDDFFFD0EDBCFE9FFFE0EB9
:10204000DBCFEAFF050EE926000EEA22EF50E66E2E
:10205000DECFE6FFDDCFE6FFEDEC25F0E552E55201
:10206000E552F3CFDEFFF4CFDDFFFD0EDBCFE9FF5E
:10207000FE0EDBCFEAFFEE52EE50EFCFEAFFE96E45
:10208000DFCFEFFFFD0EDBCFE9FFFE0EDBCFEAFF78
:10209000060EE926000EEA22EF500DE1FD0EDBCF21
:1020A000E9FFFE0EDBCFEAFF100EE926000EEA2262
:1020B000030EEF6E0CD0FD0EDBCFE9FFFE0EDBCF83
:1020C000EAFF100EE926000EEA22010EEF6E93D011
:1020D000FD0EDBCFE9FFFE0EDBCFEAFF030EE926A4
:1020E000000EEA22EF50E66EDECFE6FFDDCFE6FF20
:1020F000EDEC25F0E552E552E552F3CFDEFFF4CFEB
:10210000DDFFFD0EDBCFE9FFFE0EDBCFEAFF040EA5
:10211000E926000EEA22EF50E66EDECFE6FFDDCFC5
:10212000E6FFB1EC25F0E552E552E552F3CFDEFFD4
:10213000F4CFDDFFFD0EDBCFE9FFFE0EDBCFEAFFC4
:10214000050EE926000EEA22EF50E66EDECFE6FF2E
:10215000DDCFE6FFB1EC25F0E552E552E552F3CFD5
:10216000DEFFF4CFDDFFFD0EDBCFE9FFFE0EDBCFA0
:10217000EAFFEE52EE50EFCFEAFFE96EDFCFEFFF5E
:10218000FD0EDBCFE6FFFE0EDBCFE6FF63DDE552A3
:10219000E552FD0EDBCFE9FFFE0EDBCFEAFF060EB8
:1021A000E926000EEA22EF500CE1FD0EDBCFE9FF3D
:1021B000FE0EDBCFEAFF100EE926000EEA22EF6AE0
:1021C0000CD0FD0EDBCFE9FFFE0EDBCFEAFF100ED9
:1021D000E926000EEA22020EEF6E0DD0FD0EDBCFD7
:1021E000E9FFFE0EDBCFEAFF100EE926000EEA2221
:1021F000030EEF6E00D0020EE15C02E2E16AE552EE
:10220000E16EE552E7CFD9FF1200D9CFE6FFE1CF6B
:10221000D9FFFD0EDBCFE9FFFE0EDBCFEAFF090E93
:10222000E926000EEA22EECF14F0EFCF15F0FD0EF6
:10223000DBCFE9FFFE0EDBCFEAFF070EE926000E3B
:10224000EA22EECF16F0EFCF17F01650145C1750BD
:1022500015580DE3FD0EDBCFE9FFFE0EDBCFEAFFE5
:10226000090EEB6A0A0EEB6A010E03D002D0000ED3
:1022700000D0E552E7CFD9FF1200D9CFE6FFE1CF7A
:10228000D9FFFD0EDBCFE9FFFE0EDBCFEAFF0D0E1F
:10229000E926000EEA22EE50ED1002E1010E30D0E8
:1022A000FD0EDBCFE9FFFE0EDBCFEAFF0B0EE926CA
:1022B000000EEA22EECF14F0EFCF15F0FD0EDBCFCB
:1022C000E9FFFE0EDBCFEAFF0D0EE926000EEA2243
:1022D000EECF16F0EFCF17F01650145C17501558CC
:1022E0000DE3FD0EDBCFE9FFFE0EDBCFEAFF0B0EA9
:1022F000EB6A0C0EEB6A000E03D002D0010E00D088
:10230000E552E7CFD9FF1200D9CFE6FFE1CFD9FFE1
:10231000FE0EDBCF14F0156A14BE1568110E1502FF
:10232000F3CF15F01402F3CF14F0F4501526000E7D
:1023300014260F0E152214C0F3FF15C0F4FF00D0B1
:10234000E552E7CFD9FF1200D9CFE6FFE1CFD9FFA1
:10235000030EE126DF6ADFCF14F0030EE76E1418D8
:10236000E8AE02D0E73402D0E750145C40E2DFCFA1
:10237000E6FFCADFE552DE52F3CFDEFFF4CFDDFF2A
:10238000DD52010EDBCFE6FF020EDBCFE6FF75DF8D
:10239000E552E55200090AE1010EDBCFE6FF020E2D
:1023A000DBCFE6FF63EC0DF0E552E552010EDBCF2B
:1023B000E6FF020EDBCFE6FF34DCE552E552000912
:1023C00014E0010EDBCFE6FF020EDBCFE6FF1DDFE0
:1023D000E552E552000909E0010EDBCFE6FF020EEF
:1023E000DBCFE6FF4BDCE552E552DF2AB4D7030E24
:1023F000E15C02E2E16AE552E16EE552E7CFD9FF26
:1024000012009F0EE66E95EC2EF0E552F19412004C
:102410000BEF2FF0D9CFE6FFE1CFD9FF020EE12677
:10242000FE0EDBCFE6FF70DFE552F3CFDEFFF4CF29
:10243000DDFFDECFE6FFDDCFE6FF11EC0EF0E5526B
:10244000E552146E020EE15C02E2E16AE552E16ED1
:102450001450E552E7CFD9FF1200D9CFE6FFE1CF04
:10246000D9FF020EE126FE0EDBCFE6FF4DDFE5527F
:10247000F3CFDEFFF4CFDDFFDECFE6FFDDCFE6FFFB
:102480003BEC0DF0E552E552020EE15C02E2E16A3E
:10249000E552E16EE552E7CFD9FF1200D9CFE6FF52
:1024A000E1CFD9FF020EE126FE0EDBCFE6FF2CDFE7
:1024B000E552F3CFDEFFF4CFDDFFDECFE6FFDDCF69
:1024C000E6FF28EC0DF0E552E552020EE15C02E277
:1024D000E16AE552E16EE552E7CFD9FF1200D9CFAC
:1024E000E6FFE1CFD9FF020EE126DE6ADD6ADECF2C
:1024F00014F0DDCF15F0D890155004E6030E145CEF
:10250000000E15581CE2DECFE9FFDDCFEAFF110E09
:10251000EA02F3CFEAFFE902F3CFE9FFF450EA263B
:10252000000EE9260F0EEA22090EE926000EEA2225
:10253000EE2AEF22DF2A010E01E3DB2AD8D7020EB2
:10254000E15C02E2E16AE552E16EE552E7CFD9FFD4
:102550001200D9CFE6FFE1CFD9FF020EE126FE0E31
:10256000DBCFE6FFD1DEE552F3CFDEFFF4CFDDFFB8
:10257000FC0EDBCFE6FFFD0EDBCFE6FFDECFE6FF96
:10258000DDCFE6FF77EC0DF0E552E552E552E5527E
:10259000020EE15C02E2E16AE552E16EE552E7CF4C
:1025A000D9FF1200D9CFE6FFE1CFD9FF020EE12615
:1025B000FE0EDBCFE6FFA8DEE552F3CFDEFFF4CF61
:1025C000DDFFFC0EDBCFE6FFFD0EDBCFE6FFDECF4F
:1025D000E6FFDDCFE6FF8FEC0DF0E552E552E55268
:1025E000E552020EE15C02E2E16AE552E16EE5527B
:1025F000E7CFD9FF1200D9CFE6FFE1CFD9FF020E16
:10260000E126FE0EDBCFE6FF7FDEE552F3CFDEFFF5
:10261000F4CFDDFFFC0EDBCF14F014340EE2FC0E21
:10262000DBCF15F0070EE76E1518E8AE02D01534B3
:1026300003D0E750D880155403E2F368F46848D01B
:10264000FD0EDBCF14F014340EE2FD0EDBCF15F0DF
:10265000020EE76E1518E8AE02D0153403D0E7502D
:10266000D880155403E2F368F46832D0FD0EDB50D5
:102670000CE1FC0EDBCFE6FFDECFE6FFDDCFE6FFB1
:10268000D2EC0DF0E552E552E552FD0EDB040CE113
:10269000FC0EDBCFE6FFDECFE6FFDDCFE6FFE7ECAB
:1026A0000DF0E552E552E552FD0EDB5002080CE15B
:1026B000FC0EDBCFE6FFDECFE6FFDDCFE6FFFCEC76
:1026C0000DF0E552E552E552010EF36EF46A00D0CA
:1026D000020EE15C02E2E16AE552E16EE552E7CF0B
:1026E000D9FF1200D9CFE6FFE1CFD9FF020EE126D4
:1026F000FE0EDBCFE6FF08DEE552F3CFDEFFF4CFC0
:10270000DDFFFD0EDBCFE6FFDECFE6FFDDCFE6FF30
:10271000A7EC0DF0E552E552E552020EE15C02E253
:10272000E16AE552E16EE552E7CFD9FF1200D9CF59
:10273000E6FFE1CFD9FF020EE126FE0EDBCFE6FF7A
:10274000E3DDE552F3CFDEFFF4CFDDFF020EE66EF0
:10275000010EE66EE66A420EE66EE66ADECFE6FF40
:10276000DDCFE6FF94EC0CF0146E070EE15E145022
:10277000020EE15C02E2E16AE552E16EE552E7CF6A
:10278000D9FF1200D9CFE6FFE1CFD9FF020EE12633
:10279000FE0EDBCFE6FFB8DDE552F3CFDEFFF4CF70
:1027A000DDFFDECFE6FFDDCFE6FF4FEC0DF0E552BB
:1027B000E55227DE020EE15C02E2E16AE552E16EDB
:1027C000E552E7CFD9FF1200D9CFE6FFE1CFD9FF1D
:1027D000020EE126FE0EDBCFE6FF96DDE552F3CFDB
:1027E000DEFFF4CFDDFFDECFE6FFDDCFE6FF63ECFB
:1027F0000DF0E552E552020EE15C02E2E16AE552BB
:10280000E16EE552E7CFD9FF1200D9CFE6FFE1CF65
:10281000D9FFFE0EDBCF14F0FF0EE76E1418E8AE02
:1028200002D0143403D0E750D880145410E2FE0EC6
:10283000DBCF15F0030EE76E1518E8AE02D0E734D3
:1028400002D0E750155C03E2010E03D002D0000E67
:0A28500000D0E552E7CFD9FF1200D7
:06285A0069EC19F0FB0E11
:10286000DBCFF3FFDB06F35000090AE0B7EC19F009
:10287000FA0E22EC1AF0F3E1151CF1E1010E01D081
:10288000000E98EF19F069EC19F03B0EE12402E319
:10289000E168E652E16E010EDB6A020EDB6AF90EB8
:1028A000DBCFF6FFFA0EDBCFF7FFFB0EDBCFF8FF37
:1028B0000800F550DF6EDF5002E1BCEF18F0250E86
:1028C000DF5C02E0AFEF18F0030EDB6A040EDB6A98
:1028D000050EDB6A060EDB6A070EDB6AD1EC18F028
:1028E0002D0EDF5C0CE02B0EDF5C09E0200EDF5CC0
:1028F00006E0230EDF5C03E0300EDF5C1AE1DF5000
:10290000300A14E0130A0FE0030A0AE00B0A05E09C
:10291000060AE4E1030EDB80E1D7030EDB82DED79B
:10292000030EDB84DBD7030EDB86D8D7030EDB88F0
:10293000D5D72A0EDF5C1BE1CDEC18F01BEC19F0AB
:1029400010E0030EDB8006680768130EDBCF0DF086
:10295000140EDBCF0EF0DDEC2DF0040E04C0DBFF17
:1029600003D0130E04EC19F0D1EC18F00BD0090EC3
:10297000DB6A72EC19F003E0E6EC19F0FAD7090E05
:1029800004EC19F0030EDBB0DB982E0EDF5C1BE1CC
:10299000D1EC18F02A0EDF5C0BE1CDEC18F01BEC4B
:1029A00019F003E1130E56EC19F0D1EC18F00BD02E
:1029B000090EDB6A72EC19F003E0E6EC19F0FAD7C5
:1029C000090E56EC19F0680EDF5C07E1D1EC18F047
:1029D000680EDF5C1DE1030E18D0740EDF5C17E09B
:1029E0007A0EDF5C14E0480EDF5C06E0540EDF5C1C
:1029F00003E05A0EDF5C02E1020E07D06C0EDF5CD2
:102A000003E06A0EDF5C04E1010EA9EC19F0C9DBFA
:102A1000DF506E0A01E17FD31E0A01E192D1200A44
:102A200001E18FD13F0A01E149D11A0A01E146D102
:102A30000D0A01E143D1200A01E140D13A0A01E146
:102A40003DD1200A01E13AD1260A01E135D10D0A32
:102A500001E132D11A0A01E1D9D0200A4AE0300A54
:102A60001FE0460A0EE0250A01E083D3D950F90F92
:102A7000E96EFF0EDA20EA6E010EEE5E000EEE5AEF
:102A8000EE5AB7EC19F0250EE66E95DB03E1151C46
:102A900001E169D3B3EC19F001E26BD3DB2A69D30E
:102AA000080EDB6A040EDB50010806E2040EDB04AC
:102AB0007BEC19F0DB508BDB080EDB5009E0030EDA
:102AC000DB50010B05E172DB01E04DD3080EDB6A40
:102AD00064DBEFCFDFFF2BEC1AF003E1151C01E103
:102AE00042D3B3EC19F001E3DB2A60DB01E141D30F
:102AF0003AD3070EDB5002080FE1F7EC19F0030E92
:102B0000BEEC19F00E0EEECFDBFF0F0EEECFDBFFAB
:102B1000100EEECFDBFF20D0F70EDBCF17F0F80E54
:102B2000DBCF18F0020E175E000E185AF70E17C012
:102B3000DBFFF80E18C0DBFF17C0E9FF18C0EAFF83
:102B4000AEEC19F0166A0E0E14C0DBFF0F0E15C0A6
:102B5000DBFF100E16C0DBFF0E0EDBCFE6FF0F0E05
:102B6000DBCFE6FF100EDBCFE6FF7CEC29F0E55271
:102B7000E552E552130E05C0DBFF140E06C0DBFF65
:102B8000060EDB5005E0130EF2EC19F001E26ADBF1
:102B900016EC1AF002E2130E37DBD9EC19F006E05E
:102BA000040EF2EC19F002E2050E2EDB030EDBB090
:102BB00005D0FCDA01E0D7D2080EDB6A090EDB6A29
:102BC0000E0EDBCFF6FF0F0EDBCFF7FF100EDBCFC5
:102BD000F8FF0800F550DF6EDF5014E01CEC1AF02F
:102BE00011E22BEC1AF003E1151C01E1BCD2BBDBB6
:102BF00001E3DB2A090EDB2AD9500E0FE96E000E25
:102C0000CBDBE7D7D3DA01E1B4D2ADD2C6DA110E0D
:102C1000EECFDBFF120EEDCFDBFF110EDBCFE6FFB9
:102C2000120EDBCFE6FF1BEC29F0E552E552130E46
:102C3000F3CFDBFF140EF4CFDBFF060EDB5004E016
:102C4000130ED0DB01E20EDB16EC1AF002E2130EDB
:102C5000DBDAAFDB05E0040EC5DB02E2050ED4DAF9
:102C6000030EDBB005D0A2DA01E07DD2080EDB6AEC
:102C7000090EDB6A110EDBCFE9FF120EDBCFEAFF94
:102C8000EFCFDFFFDF5014E0D7DB12E2E4DB03E13C
:102C9000151C01E168D267DB01E3DB2A090EDB2AA0
:102CA000110EDB2ADBCFE9FF120EE8E3DB2AE6D7C1
:102CB0007DDA01E15ED257D2030EDB8E070EDB0414
:102CC00010E195DB040E5ADB0A0EEECFDBFF0B0E94
:102CD000EECFDBFF0C0EEECFDBFF0D0EEECFDBFFFA
:102CE0006CD0070EDB5003082CE1030EDBAE0DD0D9
:102CF000B2DA020E76DAEFCF14F0156A166A176AA6
:102D000014AE39D01568166835D0F70EDBCF15F044
:102D1000F80EDBCF16F0020E155E000E165AF70EF7
:102D200015C0DBFFF80E16C0DBFF15C0E9FF16C0AB
:102D3000EAFFEFCF14F00A0E14C0DBFF0B0EDB6AC4
:102D400038D0070EDB50020809E1030EDBAE04D0D9
:102D500059DB16AE10D00ED055DB0DD0030EDBAE16
:102D600012D079DA020E3DDAF9DA166A176A15AE70
:102D700002D016681768E2DA0C0E16C0DBFF0D0EE3
:102D800017C0DBFF1AD0F70EDBCF16F0F80EDBCF43
:102D900017F0020E165E000E175AF70E16C0DBFF74
:102DA000F80E17C0DBFF16C0E9FF17C0EAFFD6DA3E
:102DB000C5DA0C0EDB6A0D0EDB6A060EDB5005E190
:102DC000010EF36E050EF3CFDBFF150EDB6A160E58
:102DD000DB6AD950370F146E000EDA20156E390EEB
:102DE00014C0DBFF3A0E15C0DBFF380EDB6A080E9D
:102DF000DB6A0A0EAEDADF50780A12E0200A10E031
:102E0000280A0CE0200A0AE03F0A06E00D0A02E068
:102E1000200A08E1020E05D0080E03D0080EDF26B6
:102E2000100E97DA030EDBBE02D0DB92DB94DB5090
:102E3000800B24E08ADAD890030EEB50000A08E6F3
:102E4000000EEE5C000EEE58000EEE58000EEE582E
:102E500015E213DA0B680C680D680E6877EC2DF03C
:102E60000A0E00C0DBFF0B0E01C0DBFF0C0E02C020
:102E7000DBFF0D0E03C0DBFF2D0E08D0030EDBA21F
:102E800002D02B0E03D0DBA408D0200EF36E170E59
:102E9000F3CFDBFF150EDB2A02D0170EDB6A050E1F
:102EA000DB5003E1B7D901E189D0F60E146E5D0E57
:102EB000156E000E166E070EDBCF17F0186A196A32
:102EC0001A6A17C00BF018C00CF019C00DF01AC028
:102ED0000EF0D3D952EC2EF014500024F36E15509E
:102EE0000120F46E16500220F86EF4CFF7FFF3CFF6
:102EF000F6FF0800090EF5CFDBFF580EDF5C0FE18F
:102F0000610EF36E090E7BD90AE3200E146E090ED2
:102F1000DBCFE7FF1450E75E090EE7CFDBFF070EBC
:102F2000DBCF14F0156A166A176A0FDA14C00BF0BB
:102F300015C00CF016C00DF017C00EF0EECF04F067
:102F4000EECF05F0EECF06F0EFCF07F052EC2EF00B
:102F500007C0EDFF06C0EDFF05C0EDFF04C0EFFFA9
:102F6000390EDBCFE9FFDB063A0EDBCFEAFF01E2E9
:102F7000DB06090EDBCFEFFF150EDB2A4BD995E1FF
:102F8000030EDBA61DD06F0EDF5C06E1C1D918E38E
:102F9000150EDB285BDA14D0780EDF5C09E0580EE2
:102FA000DF5C06E0620EDF5C03E0420EDF5C08E1FE
:102FB000020EF36E160EF3CFDBFF02D0150EDB6AA6
:102FC000030EDB50100B0EE0040EDBCF14F0050EE9
:102FD000DB50D880145406E2060EDB5003E1040EE9
:102FE000DB5034DA95D90AE2050EDBCFE7FF150E88
:102FF000DB50E75E050EE7CFDBFF02D0050EDB6A94
:10300000040EDBCF14F0160E45D9D880145414E208
:10301000160EDBCFE6FF150EDBCFE6FF040EDBCF8F
:10302000E6FF050EDB50E552E75CE552D880E75439
:10303000E552D880E7545FD9030EDB50010B0BE15A
:10304000080EDB5008E0B2D801E08DD0080EDB504E
:10305000BED8080EDB6A170EDB5007E088D9170EC2
:10306000F1D903E1151C01E17ED0160EDB5016E00C
:103070007ED9300EE66E9FD802E1151C74E077D938
:10308000DFCFE6FFF7EC2CF0E552E552E552F4CF46
:1030900015F00001F31C02E1151C65E0050EDBCF05
:1030A00014F0160EDB50D880145409E2050EDBCF65
:1030B000E7FF160EDB50E75E050EE7CFDBFF300EB5
:1030C000E66E050ECBD94FE1390EDB2ADBCFE9FFE7
:1030D0003A0E01E3DB2ADBCFEAFF090EEFCFDBFF7D
:1030E000DB500EE044D9090EADD902E1151C3BE0DE
:1030F000390EDB2ADBCFE9FF3A0EEDE3DB2AEBD713
:1031000055D831E1160EDBCFE6FF080EC3D8E552E5
:10311000E7245DD82ED0070EDB50030A1CE0010A1D
:1031200014E0030A07E07BD9DBCFEEFF020EDBCF12
:10313000EDFF1FD0F5D8196A17AE02D018681968CC
:103140002CD8BCD819C0EEFF14D0EAD817BE186826
:1031500024D8B4D80ED063D9DBCFEFFF0AD07BD907
:1031600005E1151C03E1F368F46810D0FCD801E315
:10317000DB2A79D958EF14F0010EDBCF14F0020EE0
:10318000DBCF15F014C0F3FF15C0F4FF3B0EE15C7C
:1031900002E2E16AE552E16ECBD029D9020EBEEF20
:1031A00019F061D90800F550DF6E1200200EE66EAE
:1031B000080E2EEF1AF0F7EC2CF0E552E552E5522E
:1031C000F3CF14F0F4CF15F00001F31C1200146ECD
:1031D000156AD950010F4DD91450EE261550ED2225
:1031E0001200185E000E195AF70E18C0DBFFF80E19
:1031F00019C0DBFF18C0E9FF19C0EAFF1200DBCFDE
:10320000F4FFF350F45C1200DB50E76E040EE7CFDE
:10321000DBFF12000A0EDBCF14F00B0EDBCF15F034
:103220000C0EDBCF16F00D0EDBCF17F0145015107F
:10323000161017101200130EEECFDBFF140EEDCF99
:10324000DBFF130EDBCF14F0140EDBCF15F0000103
:10325000800E15141200F70EDBCF18F0F80EDBCF3E
:1032600019F01200050EDB50E66ED950130F01D98C
:10327000E552E750EE6EED6A12000A0EDBCF04F065
:103280000B0EDBCF05F00C0EDBCF06F00D0EDBCF07
:1032900007F01200DBCFE6FF150EDBCFE6FF050ED1
:1032A000DB50E552E724E552E7241200DB50CED88C
:1032B000010EF36E060EF3CFDBFF1200EE50EFCFE0
:1032C000EAFFE96E16C0EEFF17C0EEFF18C0EEFF72
:1032D0001200D9CFE6FFDACFE6FFE1CFD9FFE2CF88
:1032E000DAFF1200DFCFE6FFE66A0AEC2EF0E552C5
:1032F000E552F3501200E76E080EE7CFDBFF120035
:10330000EECF14F0EECF15F0EFCF16F0176A1200E3
:10331000050EDBCF14F0150EDB50D88014541200CC
:10332000010EDBCF16F0020EDBCF17F0186A120089
:10333000E552E5CFDAFFE7CFD9FF12000A0E14C03D
:10334000DBFF0B0E15C0DBFF1200D9500A0F39EF5F
:103350001AF0F36E070EF3CFDBFF1200EECF14F07E
:10336000EFCF15F01200010EDB2A020E1200FC0E48
:10337000DBCFE6FFFD0EDBCFE6FF1200145E000E92
:10338000155AF70E14C0DBFFF80E15C0DBFF14C092
:10339000E9FF15C0EAFF1200DA20EA6EEF2AEECF4D
:1033A000F6FF000EEF22EECFF7FFEF22EECFF8FF91
:1033B0001200040EDBCFE6FF130EDB50E552E75C94
:1033C0009ADFDB5004DF060EDB501200090EDB50E3
:1033D0000A0DF350DF24D00FE76E090EE7CFDBFFB5
:1033E000D1EF18F0DB50F36E050EFFEF18F0F70E7B
:1033F000DBCF14F0F80EDBCF15F01200DFCFE6FFC5
:10340000DBEF18F028DF030EECDE80EF19F02DEC77
:1034100014F0E552E552E552E55200091200BDDE16
:10342000EE50EFCFEAFFE96E010E1200130EDB50F3
:10343000F36E040EFFEF18F0040EDB50F36E090E6E
:10344000FFEF18F0DBCFE6FFDBEF18F0E76E050EBD
:10345000E7CFDBFF12008BDFFEEF19F0DBCFE6FFDB
:1034600086DF07EF1AF0D950F90FE96EFF0ECCEFA7
:0C34700019F0E96E000EDA20EA6E12007E
:04347C00D9CFE6FFBF
:10348000E1CFD9FFFD0EDBCF14F0FE0EDBCF15F040
:10349000166A14C0E6FF15C0E6FF16C0E6FFFB0E75
:1034A000DBCFE9FFFC0EDBCFEAFF0A0EEA02F3CF27
:1034B000EAFFE902F3CFE9FFF450EA26000EE9261D
:1034C000040EEA22E9CF17F0EACF18F017C0E6FFA2
:1034D00018C0E6FF02EC29F0196E050EE15E1950E6
:1034E000FB0EDBCFE9FFFC0EDBCFEAFF0A0EEA02A0
:1034F000F3CFEAFFE902F3CFE9FFF450EA26000E2A
:10350000E926040EEA22080EE926000EEA22F90E48
:10351000DBCFEEFFFA0EDBCFEDFFE552E7CFD9FFB1
:103520001200D9CFE6FFE1CFD9FF020EE126DE6A15
:10353000DD6AFD0EDBCFE9FFFE0EDBCFEAFFEF50C9
:1035400009E1C40E146E3A0E156E14C0F3FF15C0D7
:10355000F4FF61D0DE6ADD6ADECF14F0DDCF15F056
:10356000D890155004E6210E145C000E15584AE25E
:10357000FD0EDBCFE6FFFE0EDBCFE6FFDECFE9FF81
:10358000DDCFEAFF0A0EEA02F3CFEAFFE902F3CF4A
:10359000E9FFF450EA26000EE926040EEA22E9CFFC
:1035A00014F0EACF15F014C0E6FF15C0E6FFC1EC39
:1035B00028F0E552E552E552E55200091EE1DECF62
:1035C000E9FFDDCFEAFF0A0EEA02F3CFEAFFE902E4
:1035D000F3CFE9FFF450EA26000EE926040EEA22B2
:1035E000080EE926000EEA22EECF14F0EFCF15F018
:1035F00014C0F3FF15C0F4FF0ED0DF2A010E01E363
:10360000DB2AAAD7C40E146E3A0E156E14C0F3FF4F
:1036100015C0F4FF00D0020EE15C02E2E16AE5525F
:10362000E16EE552E7CFD9FF1200D9CFE6FFE1CF37
:10363000D9FF020EE126DE6ADD6ADECF14F0DDCFAF
:1036400015F0D890155004E6210E145C000E1558A4
:103650002FE29E0E146E550E156E166A14C0E6FF0C
:1036600015C0E6FF16C0E6FFDECFE9FFDDCFEAFFBB
:103670000A0EEA02F3CFEAFFE902F3CFE9FFF450C2
:10368000EA26000EE926040EEA22E9CF17F0EACF77
:1036900018F017C0E6FF18C0E6FF02EC29F0196E1B
:1036A000050EE15E1950DF2A010E01E3DB2AC5D7C2
:1036B000820EE66E3C0EE66E000EE66EE66A9B0E2D
:1036C000E66E550EE66EDADE146E060EE15E1450FE
:1036D000100EE66E3B0EE66E010EE66EE66A970E83
:1036E000E66E550EE66ECADE146E060EE15E1450EE
:1036F000B00EE66E3B0EE66E020EE66EE66A920EC7
:10370000E66E550EE66EBADE146E060EE15E1450DD
:10371000460EE66E420EE66E030EE66EE66A8C0E0E
:10372000E66E550EE66EAADE146E060EE15E1450CD
:10373000FA0EE66E410EE66E040EE66EE66A860E40
:10374000E66E550EE66E9ADE146E060EE15E1450BD
:103750002A0EE66E3E0EE66E050EE66EE66A800EF8
:10376000E66E550EE66E8ADE146E060EE15E1450AD
:103770002A0EE66E3E0EE66E060EE66EE66A7A0EDD
:10378000E66E550EE66E7ADE146E060EE15E14509D
:103790002A0EE66E3E0EE66E070EE66EE66A740EC2
:1037A000E66E550EE66E6ADE146E060EE15E14508D
:1037B0002A0EE66E3E0EE66E080EE66EE66A6E0EA7
:1037C000E66E550EE66E5ADE146E060EE15E14507D
:1037D0002A0EE66E3E0EE66E090EE66EE66A680E8C
:1037E000E66E550EE66E4ADE146E060EE15E14506D
:1037F0002A0EE66E3E0EE66E0A0EE66EE66A620E71
:10380000E66E550EE66E3ADE146E060EE15E14505C
:10381000220EE66E400EE66E0B0EE66EE66A5C0E5B
:10382000E66E550EE66E2ADE146E060EE15E14504C
:10383000220EE66E400EE66E0C0EE66EE66A560E40
:10384000E66E550EE66E1ADE146E060EE15E14503C
:10385000220EE66E400EE66E0D0EE66EE66A500E25
:10386000E66E550EE66E0ADE146E060EE15E14502C
:10387000220EE66E400EE66E0E0EE66EE66A4A0E0A
:10388000E66E550EE66EFADD146E060EE15E14501D
:10389000220EE66E400EE66E0F0EE66EE66A440EEF
:1038A000E66E550EE66EEADD146E060EE15E14500D
:1038B000220EE66E400EE66E100EE66EE66A3E0ED4
:1038C000E66E550EE66EDADD146E060EE15E1450FD
:1038D000A00EE66E420EE66E120EE66EE66A380E38
:1038E000E66E550EE66ECADD146E060EE15E1450ED
:1038F000520EE66E430EE66E130EE66EE66A310E6B
:10390000E66E550EE66EBADD146E060EE15E1450DC
:10391000040EE66E440EE66E140EE66EE66A2E0E99
:10392000E66E550EE66EAADD146E060EE15E1450CC
:10393000040EE66E440EE66E150EE66EE66A2B0E7B
:10394000E66E550EE66E9ADD146E060EE15E1450BC
:10395000040EE66E440EE66E160EE66EE66A280E5D
:10396000E66E550EE66E8ADD146E060EE15E1450AC
:10397000040EE66E440EE66E170EE66EE66A250E3F
:10398000E66E550EE66E7ADD146E060EE15E14509C
:10399000040EE66E440EE66E180EE66EE66A220E21
:1039A000E66E550EE66E6ADD146E060EE15E14508C
:1039B000040EE66E440EE66E190EE66EE66A1F0E03
:1039C000E66E550EE66E5ADD146E060EE15E14507C
:1039D000760EE66E460EE66E1A0EE66EE66A190E74
:1039E000E66E550EE66E4ADD146E060EE15E14506C
:1039F000320EE66E450EE66E1B0EE66EE66A120E9F
:103A0000E66E550EE66E3ADD146E060EE15E14505B
:103A1000D40EE66E450EE66E1C0EE66EE66A0B0EE2
:103A2000E66E550EE66E2ADD146E060EE15E14504B
:103A3000180EE66E470EE66E1D0EE66EE66A060E80
:103A4000E66E550EE66E1ADD146E060EE15E14503B
:103A5000BA0EE66E470EE66E1E0EE66EE66A010EC2
:103A6000E66E550EE66E0ADD146E060EE15E14502B
:103A70005C0EE66E480EE66E1F0EE66EE66AFB0E04
:103A8000E66E540EE66EFADC146E060EE15E14501D
:103A9000FE0EE66E480EE66E200EE66EE66AF70E45
:103AA000E66E540EE66EEADC146E060EE15E14500D
:103AB000020EE15C02E2E16AE552E16EE552E7CF17
:103AC000D9FF1200D9CFE6FFE1CFD9FFEF0E146E78
:103AD000540E156E166A14C0E6FF15C0E6FF16C038
:103AE000E6FF460EE66E0F0EE66E02EC29F0176E4C
:103AF000050EE15E1750460E146E0F0E156E14C0C3
:103B0000F3FF15C0F4FF00D0E552E7CFD9FF120054
:103B1000D9CFE6FFE1CFD9FFEB0E146E540E156E30
:103B2000166A14C0E6FF15C0E6FF16C0E6FF460E93
:103B3000E66E0F0EE66E02EC29F0176E050EE15EE2
:103B40001750E80E146E540E156E166A14C0E6FF78
:103B500015C0E6FF16C0E6FF460EE66E0F0EE66ED7
:103B60007AEC28F0176E050EE15E1750E40E146E25
:103B7000540E156E166A14C0E6FF15C0E6FF16C097
:103B8000E6FF460EE66E0F0EE66E7AEC28F0176E34
:103B9000050EE15E1750460E146E0F0E156E14C022
:103BA000F3FF15C0F4FF00D0E552E7CFD9FF1200B4
:103BB000D9CFE6FFE1CFD9FF020EE126640E030163
:103BC000FF03F3CF14F0156A14BE156814C0DEFFAE
:103BD00015C0DDFFEB0E146E540E156E166A14C080
:103BE000E6FF15C0E6FF16C0E6FF460EE66E0F0EB6
:103BF000E66E02EC29F0176E050EE15E1750E80E36
:103C0000146E540E156E166A14C0E6FF15C0E6FF5A
:103C100016C0E6FF460EE66E0F0EE66E7AEC28F052
:103C2000176E050EE15E1750E40E146E540E156EFD
:103C3000166A14C0E6FF15C0E6FF16C0E6FF460E82
:103C4000E66E0F0EE66E7AEC28F0176E050EE15E5A
:103C50001750DFCFE6FFB1EC2EF0E552460E146EA2
:103C60000F0E156E14C0F3FF15C0F4FF020EE15CD9
:103C700003E200D0E16AE552E16EE552E7CFD9FFF9
:103C80001200D9CFE6FFE1CFD9FFFD0EDBCFE6FF73
:103C9000FE0EDBCFE6FF1BEC29F0E552E552F3CF39
:103CA00014F0F4CF15F0010E141801E1155016E0D0
:103CB000DA0E146E540E156E166A14C0E6FF15C0A7
:103CC000E6FF16C0E6FF460EE66E0F0EE66E02EC4D
:103CD00029F0176E050EE15E175079D0FD0EDBCF8F
:103CE000E9FFFE0EDBCFEAFFEFCF16F0176A16BE34
:103CF000176816C0E6FF17C0E6FF1CEC2EF0E55271
:103D0000E552F3CF14F0F4CF15F01450151016E16E
:103D1000DA0E146E540E156E166A14C0E6FF15C046
:103D2000E6FF16C0E6FF460EE66E0F0EE66E02ECEC
:103D300029F0176E050EE15E175049D0FD0EDBCF5E
:103D4000E9FFFE0EDBCFEAFFEF50300816E1DA0E96
:103D5000146E540E156E166A14C0E6FF15C0E6FF09
:103D600016C0E6FF460EE66E0F0EE66E02EC29F078
:103D7000176E050EE15E17502AD0FD0EDBCFE9FF6E
:103D8000FE0EDBCFEAFFEF50E66E000EE66EE66A4F
:103D9000AFEC2DF0E552E552E5520EEC2FF0FD0EA2
:103DA000DBCFE9FFFE0EDBCFEAFFEFCFFFF3FD0E27
:103DB000DBCFE6FFFE0EDBCFE6FF460EE66E0F0E14
:103DC000E66EE1EC28F0E552E552E552E552460E8A
:103DD000146E0F0E156E14C0F3FF15C0F4FF00D063
:083DE000E552E7CFD9FF120004
:083DE800D9CFE6FFE1CFD9FFBE
:103DF000FB0EDBCF14F0FC0EDBCF15F0166A14C0FF
:103E0000E6FF15C0E6FF16C0E6FFFD0EDBCFE6FFBE
:103E1000FE0EDBCFE6FF02EC29F0176E050EE15E29
:103E20001750E552E7CFD9FF1200D9CFE6FFE1CF17
:103E3000D9FF110EE126040EE76EFB0EDBCFE9FF82
:103E4000FC0EDBCFEAFFE750E926000EEA22020E65
:103E5000EFCFDBFFFD0EDBCFE6FFFE0EDBCFE6FF95
:103E60001BEC29F0E552E552030EF3CFDBFF040E05
:103E7000F4CFDBFFFD0EDBCFE6FFFE0EDBCFE6FF70
:103E80001BEC29F0E552E552F3CF14F0F4CF15F016
:103E90001450151026E1020EDBCFE6FF20EC25F0D2
:103EA000E5520F0EF3CFDBFF100EF4CFDBFF460E13
:103EB000E66E0F0EE66E0F0EDBCFE9FF100EDBCFC6
:103EC000EAFFEF50E66ECCEC27F0E552E552E55202
:103ED000460E146E0F0E156E14C0F3FF15C0F4FFDE
:103EE00096D0FD0EDBCFE6FFFE0EDBCFE6FF1BEC30
:103EF00029F0E552E552F3CF14F0F4CF15F0020E9D
:103F0000141801E1155016E0BE0EE66E540EE66E72
:103F1000460EE66E0F0EE66E67DFE552E552E5529D
:103F2000E552460E146E0F0E156E14C0F3FF15C049
:103F3000F4FF6DD0010EE76EFD0EDBCFE9FFFE0E44
:103F4000DBCFEAFFE750E926000EEA22EF50E66EEB
:103F5000FD0EDBCFE9FFFE0EDBCFEAFFEF50E66E92
:103F600075EC27F0E552E552F3CFDEFFF4CFDDFF2D
:103F7000DECF14F0DDCF15F0153404E31450FF0844
:103F8000FF0E15542EE2020EDBCFE6FF20EC25F0EB
:103F9000E5520F0EF3CFDBFF100EF4CFDBFF0F0E59
:103FA000DBCFE9FF100EDBCFEAFFDFCFEFFF460EDE
:103FB000E66E0F0EE66E0F0EDBCFE9FF100EDBCFC5
:103FC000EAFFEF50E66ECCEC27F0E552E552E55201
:103FD000460E146E0F0E156E14C0F3FF15C0F4FFDD
:103FE00016D0BE0EE66E540EE66E460EE66E0F0E50
:103FF000E66EFADEE552E552E552E552460E146EE3
:104000000F0E156E14C0F3FF15C0F4FF00D0110E93
:10401000E15C02E2E16AE552E16EE552E7CFD9FFE9
:104020001200D9CFE6FFE1CFD9FF050EE126040E3D
:10403000E76EFB0EDBCFE9FFFC0EDBCFEAFFE750BC
:10404000E926000EEA22020EEFCFDBFFFD0EDBCFEA
:10405000E6FFFE0EDBCFE6FF1BEC29F0E552E55252
:10406000F3CF14F0F4CF15F01450151026E1020E22
:10407000DBCFE6FF68EC25F0E552030EF3CFDBFF64
:10408000040EF4CFDBFF460EE66E0F0EE66E030E57
:10409000DBCFE9FF040EDBCFEAFFEF50E66ECCEC9E
:1040A00027F0E552E552E552460E146E0F0E156EDE
:1040B00014C0F3FF15C0F4FF96D0FD0EDBCFE6FF72
:1040C000FE0EDBCFE6FF1BEC29F0E552E552F3CF05
:1040D00014F0F4CF15F0020E141801E1155016E09B
:1040E000BE0EE66E540EE66E460EE66E0F0EE66EE1
:1040F0007BDEE552E552E552E552460E146E0F0E98
:10410000156E14C0F3FF15C0F4FF6DD0010EE76EFD
:10411000FD0EDBCFE9FFFE0EDBCFEAFFE750E9261D
:10412000000EEA22EF50E66EFD0EDBCFE9FFFE0E39
:10413000DBCFEAFFEF50E66E75EC27F0E552E55273
:10414000F3CFDEFFF4CFDDFFDECF14F0DDCF15F0CF
:10415000153404E31450FF08FF0E15542EE2020E2E
:10416000DBCFE6FF68EC25F0E552030EF3CFDBFF73
:10417000040EF4CFDBFF030EDBCFE9FF040EDBCF31
:10418000EAFFDFCFEFFF460EE66E0F0EE66E030E80
:10419000DBCFE9FF040EDBCFEAFFEF50E66ECCEC9D
:1041A00027F0E552E552E552460E146E0F0E156EDD
:1041B00014C0F3FF15C0F4FF16D0BE0EE66E540E09
:1041C000E66E460EE66E0F0EE66E0EDEE552E55228
:1041D000E552E552460E146E0F0E156E14C0F3FF35
:1041E00015C0F4FF00D0050EE15C02E2E16AE55281
:1041F000E16EE552E7CFD9FF1200D9CFE6FFE1CF5C
:10420000D9FFB70E146E540E156E166A14C0E6FF71
:1042100015C0E6FF16C0E6FF460EE66E0F0EE66E10
:1042200002EC29F0176E050EE15E1750460E146E73
:104230000F0E156E14C0F3FF15C0F4FF00D0E55249
:10424000E7CFD9FF1200D9CFE6FFE1CFD9FF891C14
:10425000806E8D1C846E8A1C816E8C1C836E911CFA
:10426000886E8E1C856EFD0EDBCFE6FFFE0EDBCF6B
:10427000E6FF460EE66E0F0EE66EE1EC28F0E55224
:10428000E552E552E552460E146E0F0E156E14C03F
:10429000F3FF15C0F4FF00D0E552E7CFD9FF1200BD
:1042A000D9CFE6FFE1CFD9FFFD0EDBCFE6FFFE0E53
:1042B000DBCFE6FF1BEC29F0E552E552F3CF14F01B
:1042C000F4CF15F01450151016E0BE0EE66E540E25
:1042D000E66E460EE66E0F0EE66E86DDE552E552A0
:1042E000E552E552460E146E0F0E156E14C0F3FF24
:1042F00015C0F4FF2AD0926A936A956A966A976A03
:104300009A6A806881688368846885688868AE0E68
:10431000146E540E156E166A14C0E6FF15C0E6FF43
:1043200016C0E6FF460EE66E0F0EE66E02EC29F0B2
:10433000176E050EE15E1750460E146E0F0E156EC9
:1043400014C0F3FF15C0F4FF00D0E552E7CFD9FF4A
:104350001200D9CFE6FFE1CFD9FFFD0EDBCFE6FF9C
:10436000FE0EDBCFE6FF1BEC29F0E552E552F3CF62
:1043700014F0F4CF15F01450151016E0BE0EE66ED2
:10438000540EE66E460EE66E0F0EE66E2DDDE5521D
:10439000E552E552E552460E146E0F0E156E14C02E
:1043A000F3FF15C0F4FF2AD0926A936A956A966A61
:1043B000976A9A6A806A816A836A846A856A886A67
:1043C000AE0E146E540E156E166A14C0E6FF15C0BC
:1043D000E6FF16C0E6FF460EE66E0F0EE66E02EC36
:1043E00029F0176E050EE15E1750460E146E0F0E83
:1043F000156E14C0F3FF15C0F4FF00D0E552E7CFEF
:10440000D9FF1200D9CFE6FFE1CFD9FF060EE12692
:10441000DE6ADD6A010EE76EFB0EDBCFE9FFFC0E04
:10442000DBCFEAFFE750E926000EEA22030EEFCFCA
:10443000DBFFDBCFE6FF20EC25F0E552040EF3CFE7
:10444000DBFF050EF4CFDBFF040EDBCFE9FF050E2B
:10445000DBCFEAFFEFCF14F0156A14BE156814C065
:10446000DEFF15C0DDFFFD0EDBCFE6FFFE0EDBCF6E
:10447000E6FFDFCFE6FF66EC26F0E552E552E552B7
:10448000F3CFDEFFF4CFDDFFDECF14F0DDCF15F08C
:10449000153404E31450FF08FF0E155422E2040EF5
:1044A000DBCFE9FF050EDBCFEAFFDFCFEFFF460EE4
:1044B000E66E0F0EE66E040EDBCFE9FF050EDBCFD6
:1044C000EAFFEF50E66ECCEC27F0E552E552E552FC
:1044D000460E146E0F0E156E14C0F3FF15C0F4FFD8
:1044E0001ED0BE0E146E540E156E166A14C0E6FF72
:1044F00015C0E6FF16C0E6FF460EE66E0F0EE66E2E
:1045000002EC29F0176E050EE15E1750460E146E90
:104510000F0E156E14C0F3FF15C0F4FF00D0060E89
:10452000E15C02E2E16AE552E16EE552E7CFD9FFD4
:02453000120077
:0E453200D9CFE6FFE1CFD9FF3BDAFD0EDBCF9C
:10454000E6FFFE0EDBCFE6FF1BEC29F0E552E5525D
:10455000F3CF14F0F4CF15F0000ED8801454000EF1
:10456000155416E2FC0E146E550E156E166A14C024
:10457000E6FF15C0E6FF16C0E6FF460EE66E0F0E1C
:10458000E66E02EC29F0176E050EE15E175015D0AD
:10459000F70E146E550E156E166A14C0E6FF15C0A0
:1045A000E6FF16C0E6FF460EE66E0F0EE66E02EC64
:1045B00029F0176E050EE15E1750460E146E0F0EB1
:1045C000156E14C0F3FF15C0F4FF00D0E552E7CF1D
:1045D000D9FF1200D9CFE6FFE1CFD9FFE6D9FD0E12
:1045E000DBCFE6FFFE0EDBCFE6FF1BEC29F0E5524A
:1045F000E552F3CF14F0F4CF15F0000ED880145428
:10460000000E155416E2FC0E146E550E156E166A49
:1046100014C0E6FF15C0E6FF16C0E6FF460EE66EC4
:104620000F0EE66E02EC29F0176E050EE15E1750D4
:1046300015D0F70E146E550E156E166A14C0E6FFEF
:1046400015C0E6FF16C0E6FF460EE66E0F0EE66EDC
:1046500002EC29F0176E050EE15E1750460E146E3F
:104660000F0E156E14C0F3FF15C0F4FF00D0E55215
:10467000E7CFD9FF1200D9CFE6FFE1CFD9FF90D91C
:10468000FD0EDBCFE6FFFE0EDBCFE6FF1BEC29F0D5
:10469000E552E552F3CF14F0F4CF15F0000ED880B8
:1046A0001454000E155416E2FC0E146E550E156EC1
:1046B000166A14C0E6FF15C0E6FF16C0E6FF460EF8
:1046C000E66E0F0EE66E02EC29F0176E050EE15E47
:1046D000175015D0F70E146E550E156E166A14C0CD
:1046E000E6FF15C0E6FF16C0E6FF460EE66E0F0EAB
:1046F000E66E02EC29F0176E050EE15E1750460ECD
:10470000146E0F0E156E14C0F3FF15C0F4FF00D029
:10471000E552E7CFD9FF1200D9CFE6FFE1CFD9FFAD
:1047200050D9FD0EDBCFE6FFFE0EDBCFE6FF1BEC24
:1047300029F0E552E552F3CF14F0F4CF15F0000E56
:10474000D8801454000E155416E2FC0E146E550E4B
:10475000156E166A14C0E6FF15C0E6FF16C0E6FF28
:10476000460EE66E0F0EE66E02EC29F0176E050E91
:10477000E15E175015D0F70E146E550E156E166AC1
:1047800014C0E6FF15C0E6FF16C0E6FF460EE66E53
:104790000F0EE66E02EC29F0176E050EE15E175063
:1047A000460E146E0F0E156E14C0F3FF15C0F4FF05
:1047B00000D0E552E7CFD9FF1200D9CFE6FFE1CF15
:1047C000D9FF03D9FD0EDBCFE6FFFE0EDBCFE6FF00
:1047D0001BEC29F0E552E552F3CF14F0F4CF15F0BD
:1047E000000ED8801454000E155416E2FC0E146E00
:1047F000550E156E166A14C0E6FF15C0E6FF16C00A
:10480000E6FF460EE66E0F0EE66E02EC29F0176E1E
:10481000050EE15E175015D0F70E146E550E156E8D
:10482000166A14C0E6FF15C0E6FF16C0E6FF460E86
:10483000E66E0F0EE66E02EC29F0176E050EE15ED5
:104840001750460E146E0F0E156E14C0F3FF15C0F0
:10485000F4FF00D0E552E7CFD9FF1200D9CFE6FF31
:10486000E1CFD9FFB6D8FD0EDBCFE6FFFE0EDBCFE2
:10487000E6FF1BEC29F0E552E552F3CF14F0F4CF3C
:1048800015F0000ED8801454000E155416E2FC0EDC
:10489000146E550E156E166A14C0E6FF15C0E6FFBD
:1048A00016C0E6FF460EE66E0F0EE66E02EC29F02D
:1048B000176E050EE15E175015D0F70E146E550EEB
:1048C000156E166A14C0E6FF15C0E6FF16C0E6FFB7
:1048D000460EE66E0F0EE66E02EC29F0176E050E20
:1048E000E15E1750460E146E0F0E156E14C0F3FFE6
:1048F00015C0F4FF00D0E552E7CFD9FF1200D9CFA1
:10490000E6FFE1CFD9FF59D8FD0EDBCFE6FFFE0E63
:10491000DBCFE6FF1BEC29F0E552E552F3CF14F0B4
:10492000F4CF15F0000ED8801454000E155416E282
:10493000FC0E146E550E156E166A14C0E6FF15C0F7
:10494000E6FF16C0E6FF460EE66E0F0EE66E02ECC0
:1049500029F0176E050EE15E175015D0F70E146E94
:10496000550E156E166A14C0E6FF15C0E6FF16C098
:10497000E6FF460EE66E0F0EE66E02EC29F0176EAD
:10498000050EE15E1750460E146E0F0E156E14C024
:10499000F3FF15C0F4FF00D0E552E7CFD9FF1200B6
:1049A000816A0501010EF16F12000501020EF16F1F
:1049B00012000501030EF16F12000501070EF16FE1
:1049C00012000501040EF16F12000501050EF16FD2
:1049D00012000501060EF16F12000501F16B1200C5
:1049E0000501F151070A1DE0010A19E0030A15E06B
:1049F000010A11E0070A0DE0010A09E0030A06E0D6
:104A0000010A02E0CDDF0ED0CBDF0CD00BD00BD8EB
:104A100009D00BD807D00BD805D00CD803D00DD8AF
:104A200001D000D01200816A120081681200420E8B
:104A3000816E1200810E816E12003C0E816E12009A
:104A4000D9CFE6FFE1CFD9FF020EE126FE0EDB5003
:104A50004A0A26E00E0A1FE0020A18E0030A11E0E3
:104A6000070A0AE0030A03E0DE6ADD6A1ED0800E50
:104A7000DE6E0F0EDD6E19D0810EDE6E0F0EDD6E56
:104A800014D0840EDE6E0F0EDD6E0FD0850EDE6E3E
:104A90000F0EDD6E0AD0830EDE6E0F0EDD6E05D0BA
:104AA000880EDE6E0F0EDD6E00D0DECF14F0DDCF8F
:104AB00015F014C0F3FF15C0F4FF020EE15C03E231
:104AC00000D0E16AE552E16EE552E7CFD9FF12006E
:104AD000D9CFE6FFE1CFD9FF020EE126FE0EDB5073
:104AE0004A0A26E00E0A1FE0020A18E0030A11E053
:104AF000070A0AE0030A03E0F36AF46A28D0920E78
:104B0000DE6E0F0EDD6E1AD0930EDE6E0F0EDD6EB2
:104B100015D0960EDE6E0F0EDD6E10D0970EDE6E87
:104B20000F0EDD6E0BD0950EDE6E0F0EDD6E06D015
:104B30009A0EDE6E0F0EDD6E01D000D0DECF14F0C7
:104B4000DDCF15F014C0F3FF15C0F4FF00D0020E46
:104B5000E15C02E2E16AE552E16EE552E7CFD9FF9E
:104B60001200D9CFE6FFE1CFD9FFFC0EDBCF14F066
:104B7000070EE76E1418E8AE02D0143403D0E750E5
:104B8000D880145403E2F368F46823D0010EF36E66
:104B9000FC0EDB5004E0D890F336E806FCE1F3505D
:104BA000146E156A14BE1568D950FD0FE96EFF0E1C
:104BB000DA20EA6E1450EE121550ED12FD0EDBCF26
:104BC00014F0FE0EDBCF15F014C0F3FF15C0F4FF98
:104BD00000D0E552E7CFD9FF1200D9CFE6FFE1CFF1
:104BE000D9FFFC0EDBCF14F0070EE76E1418E8AE09
:104BF00002D0143403D0E750D880145403E2F36891
:104C0000F46824D0010EF36EFC0EDB5004E0D89063
:104C1000F336E806FCE1F350E81C146E156A14BE86
:104C20001568D950FD0FE96EFF0EDA20EA6E1450B8
:104C3000EE161550ED16FD0EDBCF14F0FE0EDBCF99
:104C400015F014C0F3FF15C0F4FF00D0E552E7CF14
:104C5000D9FF1200D9CFE6FFE1CFD9FFFC0EDBCFA1
:104C600014F0070EE76E1418E8AE02D0143403D027
:104C7000E750D880145403E2F368F46823D0010E9F
:104C8000F36EFC0EDB5004E0D890F336E806FCE14E
:104C9000F350146E156A14BE1568D950FD0FE96EF5
:104CA000FF0EDA20EA6E1450EE1A1550ED1AFD0EC2
:104CB000DBCF14F0FE0EDBCF15F014C0F3FF15C0F0
:104CC000F4FF00D0E552E7CFD9FF1200D9CFE6FFBD
:104CD000E1CFD9FF030EE126FC0EDBCFDEFFDBCFF9
:104CE000DDFFD9CFE9FFDACFEAFFEE50ED1001E1A9
:104CF00079D0DECFE9FFDDCFEAFFEFCF16F0176AFC
:104D000016BE176816C0E6FF17C0E6FF0AEC2EF0C5
:104D1000E552E552F3CF14F0F4CF15F0145015100E
:104D200002E160D01AD0DECFE9FFDDCFEAFFEF501D
:104D3000D00FE76E020EE7CFDBFFDBCF14F0070EDC
:104D4000E76E1418E8AE02D0143403D0E750D880D0
:104D5000145403E2F368F4684ED0DF2A010E01E335
:104D6000DB2ADECFE9FFDDCFEAFFEF50540A25E072
:104D7000180A14E0040A03E0F368F4683CD0020E59
:104D8000DBCFE6FFFE0EDBCFE6FFE66AEADEE552AA
:104D9000E552E552FE0EF3CFDBFF1FD0020EDBCF54
:104DA000E6FFFE0EDBCFE6FFE66A17DFE552E552CF
:104DB000E552FE0EF3CFDBFF10D0020EDBCFE6FF95
:104DC000FE0EDBCFE6FFE66A45DFE552E552E5522F
:104DD000FE0EF3CFDBFF01D000D0DF2A010E01E38E
:104DE000DB2A7FD7FE0EDB50146E156A14C0F3FF6A
:104DF00015C0F4FF00D0030EE15C02E2E16AE55267
:0A4E0000E16EE552E7CFD9FF120082
:064E0A00D9CFE6FFE1CF65
:104E1000D9FF020EE126DE6ADD6AFE0EDB50410A92
:104E200045E0030A43E0010A41E0070A3FE0010AC6
:104E30003DE0030A3BE0270A2DE0030A2BE0010ACC
:104E400029E0070A27E0010A25E0030A23E0560AC1
:104E500015E0010A13E0030A11E0010A0FE0070A56
:104E60000DE0010A0BE0030A09E0010A07E00F0A5E
:104E700005E0010A03E0DE68DD6824D0FE0EDB50A9
:104E8000D00F146E156A14BE156814C0DEFF15C06D
:104E9000DDFF18D0FE0EDB50A90F146E156A14BE8C
:104EA000156814C0DEFF15C0DDFF0CD0FE0EDB5010
:104EB000C90F146E156A14BE156814C0DEFF15C044
:104EC000DDFF00D0DECF14F0DDCF15F014C0F3FF0E
:104ED00015C0F4FF020EE15C03E200D0E16AE55286
:104EE000E16EE552E7CFD9FF1200D9CFE6FFE1CF5F
:104EF000D9FF060EE126FE0EDBCFE6FF86DFE55288
:104F0000F3CFDEFFF4CFDDFFFD0EDBCFE6FF7DDF6D
:104F1000E552020EF3CFDBFF030EF4CFDBFFDECF53
:104F200014F0DDCF15F0153404E31450FF08FF0E24
:104F3000155425E2020EDBCF16F0030EDBCF17F07F
:104F4000173404E31650FF08FF0E175418E2DECFA3
:104F500016F0DDCF17F0040ED89016361736E80499
:104F6000FBE1020EDB501624146E030EDB501720FB
:104F7000156E14C0F3FF15C0F4FF04D003D0F3681E
:104F8000F46800D0060EE15C02E2E16AE552E16EEF
:104F9000E552E7CFD9FF1200D9CFE6FFE1CFD9FF25
:104FA000020EE126FE0EDB50F00BE8380F0BDF6E31
:104FB000FE0EDB500F0BE76E010EE7CFDBFFDFCFFE
:104FC00014F0143410E2DFCF15F0090EE76E151857
:104FD000E8AE02D0153403D0E750D880155403E36F
:104FE000300EDF2602D0570EDF26010EDBCF14F085
:104FF000143419E2010EDBCF15F0090EE76E151817
:10500000E8AE02D0153403D0E750D88015540BE336
:10501000300E146E010EDBCFE7FF1450E726010EB1
:10502000E7CFDBFF0AD0570E146E010EDBCFE7FF90
:105030001450E726010EE7CFDBFFFC0EDBCFE9FFC4
:10504000FD0EDBCFEAFFDFCFEFFF010EE76EFC0EB8
:10505000DBCFE9FFFD0EDBCFEAFFE750E926000ECC
:10506000EA22010EDBCFEFFF020EE76EFC0EDBCF74
:10507000E9FFFD0EDBCFEAFFE750E926000EEA224A
:10508000EF6AFC0EDBCF14F0FD0EDBCF15F014C081
:10509000F3FF15C0F4FF020EE15C03E200D0E16A09
:0C50A000E552E16EE552E7CFD9FF1200A7
:0450AC00D9CFE6FF73
:1050B000DACFE6FFFA0EE3CFD9FFFB0EE3CFDAFF3C
:1050C000FC0EE3CFE9FFFD0EE3CFEAFFE9CFF3FFEC
:1050D000EACFF4FFEE66FED7ED52DFCFEEFFDE66DD
:1050E000FCD7FF0EE3CFDAFFE552FF0EE3CFD9FF87
:1050F000E5521200FB0EE3CFF6FFFC0EE3CFF7FF05
:10510000FD0EE3CFF8FFFE0EE3CFE9FFFF0EE3CF86
:10511000EAFFE9CFF3FFEACFF4FFEE66FED7ED52E8
:105120000900F5CFEFFFEE66FBD71200FD0EE3CFCF
:10513000F6FFFE0EE3CFF7FFFF0EE3CFF8FFFC0E06
:10514000E3500800F55C0AE00900F566F8D7FD0EAB
:10515000E36AFE0EE36AFF0EE36A09D0FD0EF6CFA6
:10516000E3FFFE0EF7CFE3FFFF0EF8CFE3FFFD0EE8
:10517000E3CF05F0FE0EE3CF06F0FF0EE3CF07F01E
:105180001200D9CFE6FFDACFE6FFFA0EE3CFD9FF60
:10519000FB0EE3CFDAFFFC0EE3CFE9FFFD0EE3CF1A
:1051A000EAFFDE50EF5C02E1EE66FBD7F36EFF0E26
:1051B000E3CFDAFFE552FF0EE3CFD9FFE552F3501C
:1051C0001200D9CFE6FFDACFE6FFFA0EE3CFD9FF20
:1051D000FB0EE3CFDAFFFC0EE3CFE9FFFD0EE3CFDA
:1051E000EAFFE9CFF3FFEACFF4FFDECFEFFFEE6691
:1051F000FCD7FF0EE3CFDAFFE552FF0EE3CFD9FF76
:10520000E5521200FB0EE3CFF6FFFC0EE3CFF7FFF3
:10521000FD0EE3CFF8FFFE0EE3CFE9FFFF0EE3CF75
:10522000EAFFE9CFF3FFEACFF4FF0900F5CFEFFF84
:10523000EE66FBD71200FE0EE3CFE9FFFF0EE3CFD1
:10524000EAFFF36AF46AEE5203E0F34AF42AFBD76A
:105250001200FE0EE3CFE9FFFF0EE3CFEAFFFD0EE3
:10526000E350EF5C05E0EE66FAD7F36AF46A04D027
:10527000E9CFF3FFEACFF4FF1200FE0EE3CFE9FF20
:10528000FF0EE3CFEAFFEF5017E0FB0EE3CFF6FF90
:10529000FC0EE3CFF7FFFD0EE3CFF8FF0900F5505A
:1052A00003E0EF5CFBE103D0EC5006E0EED7E9CF82
:1052B000F3FFEACFF4FF1200F36AF46A1200FE0E65
:1052C000E3CFE9FFFF0EE3CFEAFFF36AF46AEF50A2
:1052D00012E0FB0EE3CFF6FFFC0EE3CFF7FFFD0E6F
:1052E000E3CFF8FF0900F55006E0EF5CFBE1F34A7D
:1052F000F42AEC50EEE11200FF0EE3CFF8FFE55286
:10530000FF0EE3CFF7FFE552FF0EE3CFF6FFE552C6
:10531000E66AE66AE66A0900F55209E0FD0EE32A4C
:1053200005E1FE0EE32A02E1FF0EE32AF4D7FD0EAB
:10533000E3CF05F0FE0EE3CF06F0FF0EE3CF07F05C
:02534000120059
:0E534200D9CFE6FFE1CFD9FF020EE126D95008
:10535000FD0FE96EFF0EDA20EA6EEE50ED100CE163
:10536000F90EDBCFE9FFFA0EDBCFEAFFFD0EEECF41
:10537000DBFFFE0EEDCFDBFFFD0EDBCFE9FFFE0E08
:10538000DBCFEAFFEF5025E0FD0EDBCFE9FFFE0E9D
:10539000DBCFEAFFEF50E66EFB0EDBCF14F0FC0E26
:1053A000DBCF15F0166A14C0E6FF15C0E6FF16C085
:1053B000E6FF96EC28F0E552E552E552E55205503D
:1053C0000610071006E0FD0EDB2AFE0E01E3DB2AC5
:1053D000D3D7FD0EDBCFE9FFFE0EDBCFEAFFEF50A8
:1053E00003E1F36AF46A59D0FD0EDBCFDEFFDBCFB9
:1053F000DDFFFD0EDBCFE9FFFE0EDBCFEAFFEF5056
:1054000025E0FD0EDBCFE9FFFE0EDBCFEAFFEF501C
:10541000E66EFB0EDBCF14F0FC0EDBCF15F0166A48
:1054200014C0E6FF15C0E6FF16C0E6FF96EC28F0B4
:10543000E552E552E552E55205500610071006E127
:10544000FD0EDB2AFE0E01E3DB2AD3D7FD0EDBCFF8
:10545000E9FFFE0EDBCFEAFFEF500AE0FD0EDBCFE7
:10546000E9FFDB2AFE0EDBCFEAFF01E3DB2AEF6A6E
:10547000F90EDBCFE9FFFA0EDBCFEAFFFD0EDBCF43
:10548000EEFFFE0EDBCFEDFFDECF14F0DDCF15F02B
:1054900014C0F3FF15C0F4FF00D0020EE15C02E27D
:0E54A000E16AE552E16EE552E7CFD9FF120056
:0254AE00434F6A
:1054B0004D504C45544500574F524C4421003F42FB
:1054C0004144504152414D00496E697469616C69B3
:1054D0007A696E672E2E2E0D0A003F4241445041DC
:1054E00052414D00302E31002D560043504D003FAB
:1054F000424144434D44004D414E00454C555445B6
:1055000000574153480054524150004C44524754B4
:1055100053004C4453414D5000535444425900529F
:105520004A00524600524500524400524200524145
:1055300000434C53414C4C004F50414C4C00545292
:1055400049534A0054524953460054524953450066
:1055500054524953440054524953420054524953FF
:105560004100504F52544A00504F52544600504F41
:1055700052544500504F52544400504F5254420030
:10558000504F5254410048454C4C4F00424C494EFC
:105590004B00414E4E430057484F004944004E4196
:1055A000000A506172616D3A09000A000A434D44D5
:1055B0003A09000A2A2A2A2A2A2A2A2A2A2A2A2AA6
:1055C0002A2A2A2A2A2A2A2A2A2A2A2A2A2A2A0A5B
:1055D000000A0A000A53656E643A09000A526563BC
:1055E0003A09000D002A003E3E25632C25633A004F
:1055F0003D003B003A0000444F4E45003F424144CD
:06560000504152414D0033
:0A560600D9CFE6FFDACFE6FFE1CFCF
:10561000D9FFE2CFDAFFE652E65273D8EE50ED1032
:1056200006E1FC0EFCC3DBFFFD0EFDC3DBFF70D803
:10563000FC0EDBCFE6FFFD0EDBCFE6FF5FEC29F0D3
:10564000166E050EE15C02E2E16AE552E16E16506B
:10565000F3CF14F0F4CF15F054D8F350EE261550D4
:10566000ED2260D8EF5003E1F36AF46A42D0FC0EF9
:10567000DBCFDEFFDBCFDDFF4BD8DECFE6FFDDCFBC
:10568000E6FF3DEC29F0146E050EE15C02E2E16AF2
:10569000E552E16E1450FC0EF3CFDBFFFD0EF4CFAC
:1056A000DBFF2FD8EE50ED100FE1E66ADECFE6FF0C
:1056B000DDCFE6FF29EC29F0E552E552E552F3CFC4
:1056C000FCF3F4CFFDF30DD02DD8EF6AFC0EDBCF49
:1056D000FCF3FD0EDBCFFDF3010E0301FC27000EF2
:1056E000FD23DECF14F0DDCF15F014C0F3FF15C09D
:1056F000F4FFE552E552E552E5CFDAFFE7CFD9FFF7
:105700001200D950FC0FE96EFF0EDA20EA6E12008B
:10571000F90EDBCFE6FFFA0EDBCFE6FFFB0EDBCFA9
:10572000E6FF1200FC0EDBCFE9FFFD0EDBCFEAFF48
:02573000120065
:0E57320062D8C80EE66E540EE66E24EC00F04F
:10574000E552E552D7EC09F0000906E0D6EC0AF084
:10575000D1EC0BF0F5EC0BF0F0EC24F0F3D71200E9
:10576000DACFE4FFE2CFDAFFE9CFE4FFEACFE4FFEC
:10577000F6CFE4FFF7CFE4FFF5CFE4FFF3CFE4FF8C
:10578000F4CFE4FFFACFE4FF00EE00F0140EE804DB
:1057900003E3EECFE4FFFBD700EE14F00A0EE804BB
:1057A00003E3EECFE4FFFBD7E652E7EC09F09E9A65
:1057B000E55200EE1DF00A0EE80403E3E5CFEDFF2D
:1057C000FBD700EE13F0140EE80403E3E5CFEDFF82
:1057D000FBD7E5CFFAFFE5CFF4FFE5CFF3FFE5CF49
:1057E000F5FFE5CFF7FFE5CFF6FFE5CFEAFFE5CF21
:1057F000E9FFE5CFDAFF1100CBEC09F015EC1BF067
:10580000EDEC24F0936A966A956A9A6A926A816AC4
:10581000846A836A886A806AD08E9F8AF28E1200B8
:10582000D9CFE6FFDACFE6FFE1CFD9FFE2CFDAFF4B
:10583000E652E652E652E652D950F90F146EFF0EC8
:10584000DA20156E020E14C0DBFF030E15C0DBFF5D
:10585000020EDBCFE6FF030EDBCFE6FFF90EDBCF58
:10586000E6FFFA0EDBCFE6FFFB0EDBCFE6FFD950FB
:10587000FC0FE66EFF0EDA20E66E43EC14F0146EB9
:10588000070EE15C02E2E16AE552E16E1450F3CFEB
:10589000DEFFF4CFDDFFFC0EDBCFE9FFFD0EDBCF3B
:1058A000EAFFEF6ADECF14F0DDCF15F014C0F3FF8E
:1058B00015C0F4FF040EE15C02E2E16AE552E16E1C
:0C58C000E552E5CFDAFFE7CFD9FF120078
:0458CC000E0EF66E58
:1058D000000EF76E000EF86E0F010900F5505B6FB9
:1058E0000900F5505C6F03E15B6701D03DD0090012
:1058F000F550566F0900F550576F0900F550586F75
:1059000009000900F550E96E0900F550EA6E09003A
:1059100009000900F550596F0900F5505A6F090048
:105920000900F6CF5DFFF7CF5EFFF8CF5FFF56CFE0
:10593000F6FF57CFF7FF58CFF8FF0F01595302E199
:105940005A5307E00900F550EE6E5907F8E25A077E
:10595000F9D75DCFF6FF5ECFF7FF5FCFF8FF0F01FE
:0A5960005B07000E5C5BBFD712006E
:06596A00D9CFE6FFDACF01
:10597000E6FFE1CFD9FFE2CFDAFFAC6AAB6AFD0EFA
:10598000DBB0AC88DBA202D0AC8CAB8CDBB4AC8ED1
:10599000DBA602D0AB8801D0AB8ADBB8AC84DBBA23
:1059A000AB86DBAC02D09D8A01D09D9ADBAE02D0E3
:1059B0009D8801D09D98FB0EDB50AF6EFC0EDBCFB7
:1059C00015F015C014F0156A14507F6EAC8AAB8EBA
:1059D000949C948EAC50100B04E0AC50800B01E111
:0E59E000948CE552E5CFDAFFE7CFD9FF120035
:0259EE00D9CF0F
:1059F000E6FFDACFE6FFE1CFD9FFE2CFDAFFFB0E19
:105A0000DBCF14F0FC0EDBCF15F00001800E151477
:105A10001AE1FB0EDBCFE9FFFC0EDBCFEAFFEECF96
:105A2000F3FFEDCFF4FFEE2A000EEF22F3CFE9FFF4
:105A3000F4CFEAFFFD0EDBCFEFFFEF50156AF36EF8
:105A400015C0F4FF10D0FB0EDB50FE0806E1FD0E82
:105A5000DBCFE6FFEDEC2EF005D0FD0EDBCFE6FF51
:105A600003EC00F0E552E552E5CFDAFFE7CFD9FFCE
:025A7000120022
:0E5A7200D9CFE6FFE1CFD9FFE652FD0EDBCF24
:105A8000E9FFFE0EDBCFEAFFEF5029E0FD0EDBCF92
